:020000040002F8
:10600000485E0020C1630200C9630200CB63020046
:10601000CD630200CF630200D163020000000000E4
:10602000000000000000000000000000D363020038
:10603000D563020000000000D7630200D9630200AC
:1060400015660200DB630200B9690200DB6302002F
:10605000DB630200DB63020071650200DB630200A8
:10606000DB630200DB630200DB630200DB63020030
:10607000DB630200DB630200DB630200DB63020020
:10608000DB6302006D660200DB630200DB6302007B
:10609000DB630200DB630200DD660200DB630200FB
:1060A000DB630200DB630200DB630200DB630200F0
:1060B000DB630200DB630200000000000000000060
:1060C000DB630200DB630200DB630200DB630200D0
:1060D000DB630200DB630200DB6302000000000000
:1060E00000000000000000000000000000000000B0
:1060F00000000000000000000000000000000000A0
:10610000000000000000000000000000000000008F
:10611000000000000000000000000000000000007F
:10612000000000000000000000000000000000006F
:10613000000000000000000000000000000000005F
:10614000000000000000000000000000000000004F
:10615000000000000000000000000000000000003F
:10616000000000000000000000000000000000002F
:10617000000000000000000000000000000000001F
:10618000000000000000000000000000000000000F
:1061900000000000000000000000000000000000FF
:1061A00000000000000000000000000000000000EF
:1061B00000000000000000000000000000000000DF
:1061C00000000000000000000000000000000000CF
:1061D00000000000000000000000000000000000BF
:1061E00000000000000000000000000000000000AF
:1061F000000000000000000000000000000000009F
:10620000DFF80CD000F076F9004800476D8C0200F2
:10621000485E002030B450E8012F93B2C489234473
:106220008489A34228BF1B1B0489A34202BFBFF37A
:106230002F8F002007E0C3EA020340E80134002C5E
:10624000E9D14FF001000A6030BC704750E8012FDF
:10625000C2EA024240E801210029F7D1704730B478
:1062600050E8022F1FFAA2F3C488A34202BFBFF373
:106270002F8F00200DE0C48923448489A34228BFC6
:106280001B1BC2EA034340E80234002CE8D14FF064
:1062900001000A6030BC704750E8022FC2EA224277
:1062A00040E802210029F7D17047034653E8022F46
:1062B000D988B2EB324F4FF0000017BF92B241EADB
:1062C000014142EA014104E05A68B2EB324F08BF93
:1062D000012043E80212002AE8D1704730B4044696
:1062E00054E8000F0D4644E80053002BF8D1156028
:1062F00030BC704730B4044654E8000F40EA010552
:1063000044E80053002BF7D1156030BC704730B41F
:10631000044654E8000F00EA010544E80053002B4E
:10632000F7D1156030BC704730B4044654E8000F14
:1063300080EA010544E80053002BF7D1156030BC1A
:10634000704730B4044654E8000F00EB010544E800
:106350000053002BF7D1156030BC704730B40446B1
:1063600054E8000FA0EB010544E80053002BF7D1DF
:10637000156030BC704770B404464FF0000054E81C
:10638000006F0D68AE4207BF44E80023012044E8D7
:1063900000630E60002B1CBF0020F0E770BC70474C
:1063A00030B4044654E8000F88422CBF451A054615
:1063B00044E80053002BF5D1156030BC7047000055
:1063C0000648804706480047FEE7FEE7FEE7FEE78F
:1063D000FEE7FEE7FEE7FEE7FEE7FEE7E166020016
:1063E000016202002DE9F05F0546002092469B46BF
:1063F00088460646814640241BE0284641464746DB
:10640000224600F067F853465A46C01A914110D30D
:1064100011461846224600F016F82D1A67EB0108BF
:106420004F4622460120002100F00DF817EB00092D
:106430004E41201EA4F10104DFDC484631462A46C5
:106440004346BDE8F09F202A04DB203A00FA02F11F
:10645000002070479140C2F1200320FA03F3194352
:106460009040704700487047ECBF020040EA0103CB
:106470009B0703D009E008C9121F08C0042AFAD2FA
:1064800003E011F8013B00F8013B521EF9D27047BE
:10649000D2B201E000F8012B491EFBD27047002266
:1064A000F6E710B513460A4604461946FFF7F0FF13
:1064B000204610BD421C10F8011B0029FBD1801A98
:1064C0007047034611F8012B00F8012B002AF9D17F
:1064D00018467047202A04DB203A21FA02F00021F6
:1064E000704721FA02F3D040C2F1200291400843E4
:1064F00019467047064C074D06E0E06840F001037E
:1065000094E8070098471034AC42F6D3FFF77CFEBE
:1065100068C7020088C7020070B58C1810F8015BCC
:1065200015F0070301D110F8013B2A1106D110F82C
:10653000012B03E010F8016B01F8016B5B1EF9D130
:106540002B0705D40023521E0DD401F8013BFAE7B6
:1065500010F8013BCB1A921C03E013F8015B01F821
:10656000015B521EF9D5A142D8D3002070BD0000B6
:106570002DE9F8430025DFF894804FF4807601245C
:106580002F460095304603F097F938B1D8F8040348
:10659000204203D0304603F085F92543361D6400C0
:1065A0007F1CB6B2082FEDD34FF4BE74204603F023
:1065B00083F948B1204603F075F945F000456A4675
:1065C0000121002003F04CF915F0FF0F16D0012631
:1065D00000242E420ED008EB8401D1F81005D1F82A
:1065E0001015C0F304200A4AC1F3014152F82420D7
:1065F00002B190477600641C082CEAD3002D02DA21
:10660000684604F0FFFBBDE8F8830000006000402E
:10661000B834002070B54FF48076304602F020FF89
:10662000114CB50560B1304602F021FF0120C5F8DC
:106630000803607920B90120607121680020884733
:106640004FF48276304602F00BFF00280AD0304625
:1066500002F00DFF0220C5F808032168BDE8704074
:106660000120084770BD0000382B00200249024875
:10667000091F0968006808478C2B002000F0A2B9A8
:1066800070B50E46144900EB400001EBC0051446FE
:10669000E86A183520B101280FD0022805D113E08F
:1066A000284600F0C3F9A04201D2002411E022469E
:1066B0003146284600F0F2F90BE0284600F0B6F922
:1066C000A042F4D20446F2E73146284600F0B9F978
:1066D0000446204670BD0000BC3B002003F03EBED7
:1066E000F0B5A449A4484FF080540B68D4F8302189
:1066F0000078D4F83411551CC0F3031006D094462A
:1067000001270026BCF1060F03D00AE003F0FF0CBE
:10671000F6E7B4F82453DFF864C2C5F30425CCF8D7
:106720000050DDB2062D06D1032804D1DFF854C293
:10673000934DCCF87450551C04D09446BCF1060F10
:1067400003D00AE003F0FF0CF8E7D4F84452DFF876
:1067500038C2C5F34235CCF80050DDB2062D08D161
:10676000032806D1894DD5F800C02CF0807CC5F8EF
:1067700000C0551C04D09446BCF1060F03D00BE0BA
:1067800003F0FF0CF8E74FF08045C5F80C61C5F841
:1067900010617D4D2D1F2E60DDB2062D08D103281E
:1067A00006D1DFF8E4C103250CF1640CCCF80050ED
:1067B000DDB2062D10D103280ED1DFF8D4C1052596
:1067C000CCF80050724D78352F60714D08352E6031
:1067D0000CF104063F253560551C04D016460D46C5
:1067E000062E03D05BE0DEB20546F9E7ED1E012D73
:1067F00055D9684D2D68684E3560664D2D1D2D6844
:10680000361D3560634D08352D68361D3560614D88
:106810000C352D68361D35605E4D10352D68361DE2
:1068200035605C4D14352D68361D3560594D183571
:106830002D68594E20363560564D1C352D68361D55
:106840003560544D20352D68361D3560514D243549
:106850002D68361D35604F4D28352D68361D356045
:106860004C4D2C352D68361D35604A4D30352D6820
:10687000494E40363560474D34352D68361D3560FC
:10688000444D38352D68361D3560424D3C352D68F8
:10689000361D35603F4D40352D68361D3560551C21
:1068A00003D01646062E02D007E0DEB2FAE7D4F88F
:1068B00058523A4E05F04F053560551C03D013462B
:1068C000062B02D008E0DBB2FAE735480368DB07A5
:1068D00002D06FF001030360062A07D1C91E022906
:1068E00004D93048016841F4806101602748743858
:1068F000016841F470010160BFF34F8FBFF36F8FE8
:10690000D4E94C104FF01022062907D1C01E0328ED
:1069100004D9D2F808021C491C310860D2F80002E0
:10692000002803DBD2F8040200281FDA012004F05B
:106930000FF91521C2F800121B480368002BFCD088
:10694000C2F8041201680029FCD0002004F000F90C
:10695000BFF34F8F0D48F0380168144A01F4E0612D
:1069600011430160BFF34F8F00BFFDE7114910488D
:106970000860F0BDE00F00F0E80F00F04035014086
:106980000DF0ADBA00C007403C050040FCED00E052
:10699000105600400404001020C50040E40E0040E2
:1069A000000400403C17004000E401400400FA05E8
:1069B0000090D003042C002001480068004700002C
:1069C000402B002010B5124C02202061606111A004
:1069D000A06104F17800E0614FF4007020620020B3
:1069E000A06260620BA1A164E06204F51E71E16423
:1069F0001021A065C4E91410E06509A1E01DFFF7AE
:106A000060FD08A12046FFF75CFD2020A07110BDAD
:106A1000BC3B00205465726D696E616C0000000023
:106A20005254540053454747455200000269C1681B
:106A30008A4203D88068401A104400E0501A401E71
:106A400070472DE9F047C4681746894606464FF05F
:106A500000083069A04201D9051B02E0B168201A84
:106A60000D1AB0686D1E001BA84200D80546BD4235
:106A700000D33D4670682A4620444946FFF7F6FC9D
:106A8000B0687F1B2C44A844A944A04200D1002434
:106A9000F460002FDDD14046BDE8F0872DE9F041DC
:106AA00004468846D4E90207C51BE16860681646BB
:106AB0000844B54206D94146FFF7D8FCB819E06052
:106AC000BDE8F0812A464146FFF7D0FC761B08EB73
:106AD000050132466068FFF7C9FCE660F0E7000098
:106AE000014A024900F026B8F78802009C2B0020DA
:106AF00002E008C8121F08C1002AFAD17047704787
:106B0000002001E001C1121F002AFBD170470000E4
:106B10000121202803DA81400548014003E0402894
:106B200002DA2038814009B1012070470020704707
:106B3000FC06FFBD2DE9F04116460F460446002530
:106B400003E03946B047641C6D1C20780028F8D15A
:106B50002846BDE8F08190F82400012801D01F20CC
:106B60007047EE20704710B501220221002001F08D
:106B70007FF908B1072810D107220221012001F076
:106B800077F908B1072808D100210A22084601F048
:106B90006FF908B1072800D1002010BD72B603F0CC
:106BA0000FF900BF02F058FF0028FBD1114812492D
:106BB000401AC408012000EB044010A103F068F85B
:106BC00011480068C00700D000BE022000EB04405E
:106BD0000EA103F05DF8BFF34F8F0B48E438016856
:106BE0000E4A01F4E06111430160BFF34F8F00BF13
:106BF000FDE7000000C8020098C70200466174610A
:106C00006C206572726F7200F0ED00E0537973745E
:106C1000656D207265736574000000000400FA055C
:106C20000EB500210091CDE901106A4644F2010041
:106C3000FFF7B4FF0EBD10B58268C368934203D05E
:106C400001F02DFE002010BD052010BD29B112B1AC
:106C5000531E134203D0092070470E207047016075
:106C6000838000218160C1600846704710B582684A
:106C7000C3689A1A83889A4203D801F01AFE00204A
:106C800010BD042010BD0000014801F0F6BC00005A
:106C9000502B00203AB100680129426100D0002148
:106CA00001610020704707207047000038B5114887
:106CB00008235822416800910F49006802F0B1F999
:106CC000002815D10D4A69460D4801F0DBFC04008F
:106CD0000ED101210A4801F050FD0123094A19464D
:106CE000074801F0A2FC0649012008390870204637
:106CF00038BD0000E4BC020074350020B5AF0200CE
:106D0000502B0020FFFF7F0070B50446007F0D462A
:106D100008B1002070BDA26101F03AFE401941F1B6
:106D20000001C4E90201206900B125612146BDE8E6
:106D30007040002004F03EBC01460020087701208E
:106D400004F038BC70B50A4E01460A48B578FFF722
:106D500072FF04464DB10020B070711C0122C81DA5
:106D600002F0FCFB08B1FFF75BFF204670BD00009E
:106D70006C2B0020CC350020F0B5244E89B01F4686
:106D80000D00044672603FD0A888296882B220486E
:106D9000FFF75CFF002835D1A889A96882B21C489A
:106DA0001030FFF753FF00282CD1202219496846E4
:106DB000FFF75CFB60690690207C00B101208DF834
:106DC00014008DF81C70607C00B10E208DF8150049
:106DD000E0680290A06803902068019060680090CD
:106DE0000A480D4A6946083002F084FB002809D1A0
:106DF000B0702068401C05D004490122491CC81D00
:106E000002F0ACFB09B0F0BD0720FBE76C2B0020C3
:106E1000CC350020F8BC0200B9B6020010B501461E
:106E20001048FFF723FF040019D10F480F4A0178DB
:106E3000515C19B1001D03F031FE02E00C3003F08B
:106E400007FD60B9084907480839FFF7F4FE30B973
:106E5000054901220839044802F090FB0446204607
:106E600010BD0000DC350020742B00202C2B0020EE
:106E700030B5EFF3108172B60D4A9468012324B146
:106E80000370002900D162B630BD93604FF0E0235B
:106E9000D3F88051074C25401560C3F88041D3F8E2
:106EA000844154605A17C3F8842100220270E8E735
:106EB000EC350020FC06FFBD0B498A68002A11D082
:106EC00000280FD1EFF3108072B60B684FF0E0226C
:106ED000C2F800314B68C2F8043100228A600028F1
:106EE00000D162B670470000EC3500202DE9F0417A
:106EF000064608680C46411C4FF0A0474FF00105BC
:106F000006D005FA00F1C7F80815206802F082FCE7
:106F10006068411C02D0002102F06AFC3168A0695F
:106F2000C1F82405607D227D31681043C1F86C05ED
:106F3000D4E900123068C0F81425C0F80C15207D83
:106F4000012815D1A068411C02D0002102F050FC9C
:106F5000E068411C05D08540C7F80855E06802F09C
:106F600059FCD4E902123068C0F80825C0F81015A1
:106F7000BDE8F0812DE9F041064608680C46411C49
:106F80004FF0A0474FF0010506D005FA00F1C7F811
:106F90000815206802F048FC6068411C02D00021FE
:106FA00002F02FFC3168A069C1F82405607D217DC5
:106FB00032680843C2F86C05D4E900123068C0F8A2
:106FC0000C15C0F81425207D012815D1A068411C9E
:106FD00002D0002102F015FCE068411C05D085407C
:106FE000C7F80855E06802F01FFCD4E902123068C7
:106FF000C0F80825C0F81015BDE8F08170B504464A
:1070000090B0087B0D468DF83800202105A8FFF7C9
:1070100046FA42F61920ADF814000120ADF8180028
:10702000ADF81A000EA80790617C9DF82100A21D02
:1070300061F3041040F002008DF82100A87B8DF868
:107040002700687B8DF82500A08805A901F09CF831
:1070500000281CD1A968E1B10FA800F04EFE064639
:1070600014216846FFF71BFA42F60810ADF800003D
:10707000E87B8DF806000FA8ADF80A60ADF80E6049
:107080000490E08804F10E02694601F05DFA10B048
:1070900070BD0020E081FAE770B51500044609D004
:1070A0000020286034B1206820B1A079800703D087
:1070B000072070BD0E2070BD084600F04DFBC0B229
:1070C000142804D02179814203D8042070BD052002
:1070D00070BDE288216800FB02102860002070BDAE
:1070E0002DE9FC47002517880646158090F82D00ED
:1070F0001446894630B13A462146484600F040FBE6
:10710000051E09D1B0784FF00C0A18B32088C84684
:10711000001DB84202D95046BDE8FC87684679DFB9
:107120000028F9D12088032108F8001020881921AF
:10713000401C80B2208008F800102088401C80B2DB
:10714000208000EB0801BDF8000004F056FC218807
:1071500008442080F0780222C8B1218896F90330D3
:1071600001F1030C4846BC45D5D8425421884FF064
:10717000010C491C89B2218000F801C02188491CFA
:1071800089B2218009F801302088401C2080706875
:10719000B8B1218890F9003001F1030C4846BC4594
:1071A000B9D8425421880A22491C89B2218042540C
:1071B0002188491C89B2218009F801302088401CAF
:1071C0002080308950B1CDE900474B46062202218C
:1071D00006F1080004F0C2FC051E9DD1308A50B1B2
:1071E000CDE900474B460722032106F1100004F0C9
:1071F000B5FC051E90D1308B50B1CDE900474B4610
:107200001522142106F1180004F0A8FC051E83D1F4
:10721000306A30B13B462246494601F0CAF8051EA5
:10722000DBD1706A30B13B462246494601F01CFE74
:10723000051ED2D196F82C0038B13B46224649466D
:10724000304604F01BF8051EC7D1307838B13B46F4
:1072500022464946304601F091FE051EBDD1284622
:107260005AE718B504460020ADF8000013466A46F8
:10727000204600F006F8002802D0BDF800002044A7
:1072800018BD70B5E0B1DAB1002402E0045D2C4411
:10729000A4B2651C8D4206D21688A642F6D80619FD
:1072A00076789E42F2D18C420AD2A31C005D9BB23A
:1072B00000B1401E0004000C02D01C188C4201D901
:1072C000002070BD138070BD80F8301070472DE92C
:1072D000F0410D00044606D02CB195F87A00002646
:1072E000012803D006E00E20BDE8F08195F8980053
:1072F000012829D0D5F8A000042825D0D5F89C0075
:10730000042821D04FF00108A6702C2205F1780145
:10731000201DFFF7ABF884F83060D5F8A400606357
:10732000D5F8A800A0634FF6FF70A4F8240404F574
:107330008260C4F82004C4F82664A4F82A6484F89F
:107340002C64207810B104E00720CDE7FF2084F8FA
:10735000540004F155072046C4F81074FFF7FBFBF6
:10736000A4F8140404F2144239462846FFF7B8FE84
:107370000028B9D104F23120C4F818042046FFF7E0
:10738000EAFBA4F81C0404F21C4205F13C00D4F80A
:107390001814FFF7A5FE0028A6D184F85180208B91
:1073A000A4F8480084F83C80266484F85060606942
:1073B00000216064454604F13C02781E72DF00281B
:1073C00092D1257090E710B50288102A1BD0112A9F
:1073D00020D0262A1DD1007A0C46012801D002288F
:1073E00017D1A0780521401CB0FBF1F201FB12017E
:1073F000204600F01DF800280BD0A16B002908D012
:10740000BDE810400847C27B012A02D18088A1F85C
:10741000240410BD0C46002184F82E148088B4F892
:1074200024148842F5D120790028F2D10121DFE728
:107430002DE9F05F044600780F4698B1A77000254B
:10744000C4F82654A4F82A5484F82C54A0790126B0
:1074500008B1012F09D0E07980B1012F05D0022FAA
:1074600003D00BE00820BDE8F09F616B21B184F8E8
:107470002D640820884701E084F82D5404F2274148
:1074800000200A5C0AB1304603E0401C0628F8D30D
:1074900000204FF002084FF0030B012F06D0022FFF
:1074A0000CD0032F0FD0042F15D110E0A17929B1F2
:1074B00094F8241011B908B130460DE0E17911B10A
:1074C00008B1404608E0207A08B1584604E0607AE6
:1074D00008B1042000E02846A070616B41B1032888
:1074E00001D0042804D1607910B194F82E0498B129
:1074F00084F82F5404F13C0018210746FEF7CFFF13
:1075000084F83C6004F12C0003F072FC58B194F84C
:107510002C0084F8510008E084F8305484F82F647B
:1075200007208847E6E784F8516094F8240058B1B2
:1075300004F1280003F05CFC20B194F8280084F8E2
:10754000520001E084F8526084F85050A27804F2AE
:10755000264104F582694FF0060A052A64D2DFE865
:1075600002F07C030F22420084F83160C4F82054FA
:10757000C4E9101584F83C808020A4F8480055E048
:1075800084F8318094F82420384612B10722027022
:1075900001E080F800B0228A8281C4F82054416062
:1075A000E168B96042E06069B860208BB88194F806
:1075B00024003D460028204602D084F83CA001E08B
:1075C00084F83C6004F0ACFA50B185F814800421D2
:1075D000204601F07CF938BB052184F8311021E008
:1075E00084F831B01EE0E069B860208CB88194F86E
:1075F00024003D460028204602D084F83CA001E04B
:1076000084F83C6004F08CFA48B185F814800421B9
:10761000204601F05CF938B984F831A002E004207A
:1076200084F83100C4F82094A07878B13A4604F187
:107630005400D4F8201472DF00287FF414AF94F8BB
:10764000301094F8540073DF0028F6D1616B11B14B
:1076500094F831008847002005E784F83150F5E7B9
:1076600038B50D46040018D0BDB1286820602879CF
:107670006074FF20207401208DF8020041F60F0095
:10768000ADF80000221D69460120A8DF002803D1C3
:1076900029462046FFF7B2FC38BD0E2038BD38B56C
:1076A000002924D0002822D00288502A1FD1054664
:1076B000487C0C4600281AD0E9886289A81D9142AE
:1076C00015D14189022912D1216800290FD00C302F
:1076D00000F00FFB08B1002000E001208DF8000051
:1076E000A888ADF80200226869462046904738BD58
:1076F00070B5040012D001461C221448FEF7B6FEF5
:107700001248134D0560206850B17ADF002806D179
:107710002068016829604068686005E00E2070BD3F
:107720000B487BDF0028FAD108484FF6FF71143868
:10773000084A20F8041B0549343901600021FFF78D
:10774000A9FA0028EBD0032070BD00000C34002003
:10775000242B0020B9BA020010B5044600F006F848
:1077600008B1204610BD142010BD0000142801D31C
:10777000002070470146014801F09DBC2C340020D8
:107780007CB5054608880C460930904201D90C208A
:107790007CBD68466DDF0028FAD121880820685436
:1077A00020881B21401C80B2208029542088401C46
:1077B00080B220802844DDF801100160BDF805107A
:1077C00081802088801D80B220809DF800104908AB
:1077D00000D0012129542088401C208000207CBD3D
:1077E000F8B52B4D018804466E8821293BD015DC65
:1077F0002848294A1029A0EB02004FEAD0004FF098
:10780000030202EB004013D0112925D0132929D1FE
:1078100000231A46852130467FDF17E03B2932D00E
:1078200052292AD056291DD18088132176DF0DE0F8
:107830001AA102F02DFA072000F03CFB08B1FFF777
:10784000EFF9A1886980184801F092FD002809D05D
:10785000BDE8F840FFF7E4B914A102F019FA4FF6B9
:10786000FF706880F8BD00200090A08869468FDF17
:107870000028F7D0FFF7D4F9F8BD00231A461946BF
:107880003046B1DFE2E78088132176DFDEE70000D3
:10789000E02A002000C8020098C70200436F6E6E05
:1078A0006563746564000000242F002044697363DD
:1078B0006F6E6E65637465640000000010B51A4C4D
:1078C0000188606810290ED011292BD1401E6060FC
:1078D00028D1FFF748F9002824D02168002921D0B9
:1078E000BDE810400847D0B900210122084600F049
:1078F000BFFA08B107280FD107220221012000F0AA
:10790000B7FA08B1072807D104220221002000F0AD
:10791000AFFA20B1072802D0216801B1884760681A
:10792000401C606010BD00001C2B00202DE9F047BA
:1079300001883B4E40F2F3194FF6FF7510291BD01A
:1079400011293ED0122954D0502946D1C188F2893C
:10795000841D914241D1618902293ED186883046F9
:1079600001F030F8050038D004F10C0000F0C1F946
:10797000A8B3294630464EE0C17B878804460129DA
:107980002BD1A846284601F01DF8050017D02F80FE
:1079900000202872234843464A460168C5F80A1069
:1079A0004068C5F80E0004F1100105F10A0001F06D
:1079B000C5F86872F08900280FD129462AE0042012
:1079C00013E0808800F0FEFF040006D06068FFF737
:1079D000B3F908B103F022FC2580BDE8F087FFE78A
:1079E0006868FFF7A9F90028F7D0BDE8F04703F071
:1079F00015BC87880646384600F0E4FF0400ECD04A
:107A00002B464A4606F1080104F10A0001F096F8F7
:107A1000607221463846BDE8F04700F011BD000015
:107A20000C340020242B00202DE9F04F04468688DA
:107A30000188424897B0834610290CD0112950D0B4
:107A4000103019296AD01A2974D1217A0C09042C12
:107A50004DD301224CE0394D083DA868C0430B903E
:107A600069680BA801F048FB0B990CA800F082FC98
:107A70002C220CA96846FEF7F9FC0027E946A84627
:107A800010E000BF09EB47005FF00005B0F804A06C
:107A900008EB85005146001D01F002FB6D1C1E2DF8
:107AA000F6D37F1C0098B842ECD8142E05D317B03B
:107AB0000420BDE8F04FFFF7B3B83146584601F057
:107AC00005FB314608F1040001F000FBE07B0228D1
:107AD00030D117B03146BDE8F04F1848001D01F015
:107AE000F5BA17B03146BDE8F04F01F0D9BA00221F
:107AF000314600F0E7FE032C01D3012200E0002212
:107B00000E4831460C3000F0DDFE022C01D301227C
:107B100000E0002209483146083006E0217A0029B9
:107B200008D1617AC1F3C002314617B0BDE8F04F09
:107B300000F0C8BE17B0BDE8F08F00003034002060
:107B4000F0B585B016460F4604001D4614D004AAB1
:107B500019466069FFF7A0FA00280BD1A5F57F4010
:107B6000FF380BD0049848B1007848B13088F42829
:107B700008D9072005B0F0BD0E20FBE70520F9E786
:107B80000820F7E700200090019002900390A08861
:107B9000ADF8000001208DF80200CDE902676946CA
:107BA0002846AEDFE6E7000070B5334D04008EB026
:107BB0002DCD08AE86E82D005BD0E9B30868A06142
:107BC000214608A862DF002851D1207801258DF8D0
:107BD0003200ADF83050A21C0CA92846A8DF0028BE
:107BE00045D120216846FEF75AFC0220ADF800007E
:107BF00020788DF802008DF80C509DF80D00F426C9
:107C0000ADF8046040F00C008DF81150ADF806504E
:107C10008DF80D008DF81250608804F10C02694651
:107C200000F0B2FA002822D120216846FEF737FC86
:107C30000320ADF8000000E01BE020788DF8020082
:107C40008DF80C509DF80D008DF81150ADF80460C2
:107C500040F010008DF81250ADF806508DF80D0070
:107C60008DF813506088221D694600F08DFA0EB021
:107C700070BD0E20FBE70000C8BC020070B588B0E4
:107C80000446002927D0002C25D008462188102939
:107C900023D0502927D057291DD10546A1884069F6
:107CA00006AAFFF7F9F9002815D1069E30780028BA
:107CB00011D0A86900280ED018216846FEF7EFFB06
:107CC00001208DF800000195A088ADF8080003960A
:107CD000A9696846884708B070BD08B02146BDE86C
:107CE000704002F063BF08B02146BDE8704003F069
:107CF0003DB8007800F0010070470A7802704978BA
:107D000041700220704700000149085C7047000084
:107D100080BC020007490B5C4FF0A041D1F804255C
:107D20000120984020EA0203C1F808351040C1F84C
:107D30000C0570477CBC02000249085C012101F07F
:107D4000A5BD00007CBC02000249085C002101F0D6
:107D50009DBD00007CBC02000649095C4FF0A040BC
:107D6000D0F80405C84010F0010000D0012080F0D8
:107D7000010070477CBC020010B500242046FFF7CC
:107D8000DBFF641C042CF9D310BD10B50024204681
:107D9000FFF7DAFF641C042CF9D310BD10B50246BE
:107DA000064B4FF0FF3000215C5C944201D1084645
:107DB00010BD491C0429F7D310BD000080BC02008F
:107DC00010B5002000F066F908B1062806D10120A0
:107DD00000F060F908B1062800D1002010BD0000B5
:107DE0002DE9F0470D468146FFF7D8FF04460428E9
:107DF00036D2DFF874801B481C4EA8F10C0725B35F
:107E0000012D0ED0022D2BD104EB440030444578D7
:107E1000002D25D0B968002922D02846BDE8F047BA
:107E2000084704EB4401755C0E44717849B10E4A71
:107E30004FF48041093A8068FEF766FF08B987F879
:107E40000390B17808F80410E2E78068FEF774FF49
:107E500004EB4401314418F804008D78A842D7D0CF
:107E6000BDE8F08784BC0200182B0020A833002056
:107E700070B50023042810D20D4D00EB4004012AF8
:107E800002D101290CD00022094E00EB4000304401
:107E900061B1012906D0022906D00723184670BD1A
:107EA0000E30C2B22A55F9E74270F7E78270F5E763
:107EB000A8330020044A014600201279D20702D0DC
:107EC000084600F003B870470C2B00202DE9F05F46
:107ED0006E4C054600266078B34618B184F801B0B0
:107EE00000F04EFE6A4F4FF47A694FF4C87A4FF0B3
:107EF0000108182D69D2DFE805F00C131338475438
:107F0000696E727B727BC58484848484B3B6B9BC89
:107F1000C5C500F035FE3868FEF70EFF06465CE08A
:107F20000020FFF719FF00284FF0000008D0FFF7EE
:107F300003FF022D02D14FF4E16008E0484606E05D
:107F4000FFF702FF022D01D1C82000E05046410C8E
:107F5000C0034FF47A72801841F10001257052007D
:107F60000023FEF73FFA01462AE00020FFF7F4FE67
:107F700000284FF0000004D0FFF7DEFE4FF44870F9
:107F8000E5E7FFF7E1FEDFE70020FFF7E5FE002869
:107F90004FF0000002D0FFF7CFFECFE7FFF7D4FE8F
:107FA000D4E70020FFF7D8FE00284FF0000002D0F1
:107FB000FFF7C2FE01E0FFF7C7FE257040F6CD4196
:107FC00000223868FEF7A0FE064646E00020FFF7D4
:107FD000A1FE257008E0002051E025703DE084F806
:107FE00001800120FFF796FE002240F26661E8E77B
:107FF00084F801800120FFF78DFE00224FF400512C
:10800000DFE77868FEF798FE0646D5F1110000D04C
:108010002EB10220FFF790FE84F802B01DE0012887
:1080200016D980B2C8214843C117C90341EA50415B
:10803000C0034FF47A72801841F10001520000230E
:10804000FEF7D0F9014600227868FEF75DFE06468D
:108050000220FFF779FE84F802803046BDE8F09FE9
:1080600000F08EFDB9E700F08BFDB4E700F088FD6D
:1080700004E000F085FD0020FFF766FE0120FFF719
:1080800063FEAAE7FFF781FEA7E700000C2B0020A4
:1080900084BC0200012103F0C8BD00002DE9F84FA7
:1080A0000546861C00208DF8000091460F464FF0D3
:1080B000010A6846FEF7DCFE1B4C04F21C486068AF
:1080C0003860D4E90101194F401A3968081A0EE0E6
:1080D0000121404601F00AF800F076FD01464046D5
:1080E00001F004F8D4E90101401A3968081A401C6B
:1080F0008642EDD8B9F1000F03D0052065F3891051
:1081000002E0062065F39F5061683A68114004EB75
:108110008101C8606068304460609DF80000FEF72F
:10812000CBFE5046BDE8F88F9C370020AC2B0020DA
:1081300070B50D4604460A2902D10D21FFF7F8FF5C
:10814000A0682268411CA1601554D4E90101814254
:1081500004D32046BDE8704001F02DBA70BD000088
:10816000044881684068814201D1012070470020A5
:10817000704700009C3700200249084490F9300005
:1081800070470000B83400202DE9F043814688781C
:1081900091B090460C4600B901208DF83E00208831
:1081A000ADF83C0000250095607C694603F0E6F8D8
:1081B0006E46A07C711C03F0E1F8E07B00289DF87E
:1081C000020002D040F0080001E020F008008DF825
:1081D0000200217C11B140F0100001E020F01000FD
:1081E0008DF80200217B11B140F0010001E020F088
:1081F00001008DF80200217D09B1022100E001217A
:1082000061F342008DF802001C2102A8FEF747F935
:10821000607BC10601D4800617D50E950EAFE07CB9
:10822000791C03F0ABF89DF83800079720F00F0099
:10823000401C20F0F00010308DF838009DF83A0016
:1082400020F00600801C8DF83A00607B8DF8080055
:10825000A07B8DF80900142109A8FEF720F90FA8CA
:10826000CDE90906A088ADF83000A06820B1E0880B
:10827000ADF82C00A0680D90A06998B30195008816
:10828000ADF81000A06901AD01A94088ADF8120059
:10829000A069406806950390A069007B03F06EF822
:1082A000A069691C407B03F069F8A069807A002806
:1082B0009DF8060002D040F0080001E020F0080020
:1082C0008DF80600A169C97A11B140F0100001E0F3
:1082D00020F010008DF80600A169097A19B140F06C
:1082E000010002E00DE020F001008DF80600A16918
:1082F000897B09B1022100E0012161F342008DF880
:108300000600E06900B10590434609AA02A9484663
:10831000AADF11B0BDE8F08370B5084C050009D0A4
:1083200010342168002907D0086820604968284671
:108330008847F6E70834F4E770BD0000A434002055
:10834000054A012120B1012805D19170FFF7E4BF52
:1083500051700020FAE77047A434002010B5D0E92E
:108360000234D1E90220D11AA04101D3012010BD6D
:10837000002010BD73B58CB00646002000900D980B
:1083800080B100246D4621460DA800F094FE30B166
:10839000009805EB400084800098401C0090641C0D
:1083A000142CF0D32C2269463046FEF75FF80EB04D
:1083B00070BD2DE9F04117880646B81D14460D46DC
:1083C000984202D90C20BDE8F081318807220629A5
:1083D0000AD34FF4486C4FF6FF73614501D99942B7
:1083E00002D17088062801D21046ECE7604501D919
:1083F0009842F9D1994203D0984201D08142F3D8F2
:108400000520E85520881221401C80B22080295484
:108410002088401C80B220804119308803F0EDFA9A
:108420002188084480B220804119708803F0E5FA61
:108430002188084420800020C5E7FEF7F1BB00003A
:1084400038B54A7A0F4B62B100220A725969002985
:1084500006D001228DF80020ADF80200684688475A
:1084600038BD0A7A62B19B684C68024619462046BC
:10847000FEF74AFC0028F3D0BDE8384002F0CEBE3B
:108480005B68F1E70C34002070B588B00646002028
:1084900005900690ADF81410ADF8161001900290FA
:1084A00001AA05A9304690DF050021D001F0FAFFAE
:1084B0000346114811493246401AC108012000EB19
:1084C000014004460E4901F0EEFBBDF8042012B94C
:1084D000BDF8060028B1BDF80630204609A101F01C
:1084E000E2FBBDF808201AB12046164901F0D4FB82
:1084F00008B0284670BD000098C7020098C7020067
:10850000F0BF02005468652072657175657374650B
:10851000642054582F5258207061636B6574206C2E
:10852000656E67746820697320746F6F206C6F6E5E
:10853000672062792025752F2575206F6374657417
:10854000732E00003CC00200F0B587B00C46074611
:108550001646142101A8FDF7A2FFA07800B901205A
:108560008DF81A002088ADF8180006A80190A079AF
:10857000694602F003FF6D46E079691C02F0FEFED9
:10858000E07800289DF8020002D040F0080001E0E9
:1085900020F008008DF80200217911B140F01000A0
:1085A00001E020F010008DF80200617911B140F077
:1085B000010001E020F001008DF80200217A09B1EC
:1085C000022100E0012161F342008DF802000295D2
:1085D0006089ADF80C00A089ADF80E00E089ADF817
:1085E000100020690590324601A93846ABDF07B07C
:1085F000F0BD000010B50021024800F088FD80F3B6
:10860000100010BDB83B00204FF480328A40016852
:10861000C1F848230068C0F8082370474FF4A072DF
:1086200002EB810189B200F030B92DE9F041054635
:108630000E464FF4A07000EB860081B228684FF41C
:108640008034B440984622F07F47C0F80843286839
:10865000C0F84843286801F0D7FC286800EB860082
:10866000C0F840752868C0F84443B8F1000F02D044
:108670002868C0F80443BDE8F0810068D0F804051C
:108680007047000070B54379234C44F823204279A9
:10869000231D03EBC202224C1579204A121BD40879
:1086A0002DB10825022000EB04401EA130E0056832
:1086B0000A88C5F8082590F904208978002A4FEA2D
:1086C000411104DB02F1E02282F8001405E002F01F
:1086D0000F0202F1E02282F8141D90F90410012229
:1086E000002909DB01F01F0502FA05F54909890097
:1086F00001F1E021C1F800514179002503EBC101EE
:108700000A71417943F83100032000EB04400EA1C7
:1087100001F0BEFA284670BD882B0020E8C7020091
:1087200098C7020052544320696E7374616E63658A
:1087300020616C726561647920696E697469616C2D
:10874000697A65642E0000005254433A20696E69CC
:108750007469616C697A65642E00000090F9040008
:10876000002809DB00F01F02012191404009800030
:1087700000F1E020C0F8001270470A46022100F024
:108780007BB84FF4827100F080B80068012101606D
:10879000704700680121416070472DE9F05F07468E
:1087A0000C464FF4A07000EB84001FFA80FA386882
:1087B0004FF48036A6409B4622F07F45C0F84863C0
:1087C0003868C0F808633868D0F8048500EB840284
:1087D000D2F84095C2F840855146386801F014FC43
:1087E000A9EB080020F07F40012806D1102001F0FD
:1087F000C5FE5146386801F007FC3868D0F804859A
:10880000C0F84463A5EB080121F07F4138680129D5
:1088100000EB840010D0C0F840553868D0F804153B
:108820006FF07F4C6A1A521E22F07F42ACEB0B03B2
:10883000934217D362B118E06D1CC0F84055102068
:1088400001F09CFE3868D0F8040540450AD10CE0E0
:1088500000EB84006D1CC0F840553868D0F8040562
:10886000884202D00D20BDE8F09F012231463846F3
:1088700000F002F80020F6E70368C3F84413002A6A
:1088800002D00068C0F80413704710B50068425861
:108890001AB101F0B9FB012010BD002010BD8268A3
:1088A00083881A4003689A5C0A708168491C816059
:1088B0007047C26883881A4003689954C168491C8C
:1088C000C16070470AB100F001BC00F0E9BB70B5AF
:1088D0000D460446B0F81414D0F810040122FEF737
:1088E000C0FC00B1057004F13C0204F5826104F1A2
:1088F000540072DF70BD10B50446C0B2FEF78EFAA8
:10890000204610BD0C484A8843889A4213D10A88F1
:10891000A2F52063773B0ED18988C91E8AB2828076
:10892000064807491346401AC008032101EB0040DE
:1089300004A101F0B8B97047E02A002000C8020085
:1089400098C7020044617461206C656E20697320D1
:1089500073657420746F20307825582825642900A9
:1089600010B50949094800F049FC08B1FEF758F96B
:10897000F721064800F036FC002803D0BDE810407F
:10898000FEF74EB910BD000005890200102F00202F
:1089900010B50B48FFF771FE094A083AD2E90434D2
:1089A000C018D2E9063244F10001C31A71EB020289
:1089B00004D24FF08072801841F1000110BD000018
:1089C000502B00200146034802888A4200D0002034
:1089D00070470000F83300202DE9FC5F0E0083464D
:1089E000DDE90C47C6F1000098469246814600D466
:1089F0000846012503E000BF90FBFAF06D1C5045CE
:108A0000FADAA84500D9454624B1002E01DB7807E3
:108A100000D5641EB80702D5B8F1000F0AD0F807D8
:108A200008D13CB1A54205D220215846641EFFF76B
:108A30007FFBF6E7002E02DA4E462D2102E0780792
:108A400003D52B215846FFF773FB07F003000228DC
:108A50000BD1B8F1000F08D13CB1A54205D23021AD
:108A60005846641EFFF764FBF6E7CDE9004743462E
:108A700052463146584602F0C5FFBDE8FC9F000053
:108A800070B50D46044600684FF4887101F02AFD68
:108A90004FF49071206801F025FD4FF49271206829
:108AA00001F020FD4FF4A271206801F01BFD4FF48E
:108AB000AC71206801F016FD20681249C0F804135B
:108AC0002068690740F30730090E002804DB00F135
:108AD000E02080F8001405E000F00F0000F1E02035
:108AE00080F8141D206840F30730002809DB00F0EF
:108AF0001F02012191404009800000F1E020C0F8F0
:108B0000001170BD10034200024600201268530796
:108B100013D502F00300012802D002280CD105E091
:108B2000C2F383100B68801C184404E00223086819
:108B300003EB92521044086001207047F0B584881E
:108B4000A518944200D82246A41AC288D6189A4280
:108B500000D81346D21A4B880788BB420CD34088F2
:108B6000834209D88888A04206D3A84204D8C8887E
:108B7000904201D3B04201D90020F0BD0120F0BDE8
:108B80000A4810B5807860B1002401E0022C06D0BC
:108B90002046FFF7D1F8641C042CF7D310BD032442
:108BA000F6E7BDE81040FFF7E7B800000C2B002007
:108BB000F721018017214180002101714171FB21C2
:108BC00081711B21C17170472DE9FF4100262448A6
:108BD00000F089FA2248001F074600F084FA214C71
:108BE0002149A06800900D6800E00098694628407F
:108BF00004EB80000C30FFF787FF0028F5D101AAB5
:108C0000009901EA050304EB8303491CDB6842F881
:108C10002030401C00910228F2D3019800F003009C
:108C200001280BD0022810D10198032101EB9050AC
:108C30000099BDF80A6001EB900005E00198BDF8CD
:108C40000A60C0F3831008440090384600F048FAE8
:108C500008B10098A06004B03046BDE8F081000083
:108C6000B43B00209C370020AC2B0020ACB0182275
:108C70005F496846FDF7FAFB5E4806905E494FF48F
:108C80008070CDE90701099007235C4A06A9684670
:108C9000FEF772F808B1FDF7C3FF4FF480410020E2
:108CA00001F062F808B1FDF7BBFF00F0C7FEFDF769
:108CB000FDFF08B1FDF7B4FF01F060F908B1FDF761
:108CC000AFFF01F011FB08B1FDF7AAFF00246946D0
:108CD0000120009401F0A8F908B1FDF7A1FF684652
:108CE00001F03AFA08B1FDF79BFF9DF8080044A196
:108CF00020F00F00401C20F0F00010308DF808002C
:108D00000A2202A87CDF08B1FDF78AFF0094102038
:108D1000ADF800003C200194ADF80200ADF804402D
:108D20004FF4C870ADF8060068467ADF08B1FDF769
:108D300077FFFFF715FE02F0E5FAAC216846FDF774
:108D4000AEFB02208DF800008DF8024005208DF862
:108D500003000120ADF84C008DF87C002B49402029
:108D60001491229044F2506023902948299069463A
:108D70002848FEF7ACFA08B1FDF752FF012125485B
:108D8000FEF7A2FA1C216846FDF789FB4FF4A030DC
:108D9000CDE900404FF4F02002901F4805900325D4
:108DA0001E488DF80C500690ADF80E408DF810401E
:108DB0006846FEF79DFC08B1FDF732FF18A0FDF7ED
:108DC0008FFE1C481C49401AC00805EB00401BA13F
:108DD00000F05EFF03210F48FEF72AFB08B1FDF704
:108DE0001FFF00F039FE0028FBD101F0DBF8F8E7A7
:108DF00064BC0200FC2C0020FC2D002041B60200C7
:108E00007A68616E675F554152540000E62A00207F
:108E100069AB0200302F002091AB02003B840200BE
:108E20000D0A5541525420737461727465642E0D9D
:108E30000A00000000C8020098C70200446562757D
:108E400067206C6F6767696E6720666F7220554197
:108E50005254206F7665722052545420737461729C
:108E60007465642E0000000070B5144682880E46BA
:108E700005462088111D0144921C994201D8FE2A02
:108E800001D90C2070BD521C32542088FF21401C97
:108E900080B2208031542088401C80B2208081190B
:108EA000288802F0AAFD2188084480B22080AA8880
:108EB00042B1A96841B13044FDF7D8FA2088A988A9
:108EC00008442080002070BD072070BD2DE9F047C8
:108ED000C5881E1DB6FBF5F78946B6FBF5F10446BD
:108EE00005FB176C407916686843DDF820A0F71879
:108EF000001F874200D9C61A166001E02468491E87
:108F00000029FBD1A5EB0C078846B74216D818E01C
:108F100004EB0C00001D09EB0803BAF1000F3A4600
:108F200002D00146184600E01946FDF79FFA246872
:108F3000F61B4FF0000CB844B54201D9374600E0AB
:108F40002F46002EE4D1BDE8F087000030B5024680
:108F500051B100F01DFF0021074C08E034F821302A
:108F60001568AB4202D11160002030BD491C81421E
:108F7000F4D3052030BD000000000000F8B50F4616
:108F8000017814460546012901D1687830B120885E
:108F9000821C9A4232D8012902D006E00720F8BD8F
:108FA00069780144891C994228D8181A801E86B213
:108FB000ADF800602188B81C084469467DDF0028B0
:108FC000EDD12978022904D06878BDF800209042BC
:108FD00005D3BDF80000B04201D809200AE00820FE
:108FE000012905D16978B14202D8ADF8001001E03D
:108FF000ADF80060BDF80010FE2901D90C20F8BDC5
:109000002288491CB9542188491C89B2218078548E
:109010002088401C2080BDF80010084420800020DB
:10902000F8BD10B531B1B2FBF3F403FB14241CB14D
:10903000092010BD0E2010BD01600021416081603B
:109040008281C381084610BD70B50C460546FDF708
:10905000E1F8002802D021882868084470BD10B5C6
:109060000A8849888A4203D1FDF716F9012010BD0C
:10907000002010BD70B50C460546FDF7F0F800283D
:1090800002D061882868084470BD10B50A884988F4
:109090008A4203D1FDF7DAF8012010BD002010BD8F
:1090A00001F01F0301229A40D243490900EB8100DD
:1090B000114600F021B84A0950F8220001F01F02C1
:1090C00001219140084000D00120704701F01F03AA
:1090D00001229A40490900EB8100114600F01CB8BA
:1090E000002100F00FB8012100F016B808B56A465B
:1090F000FDF727F9009808BD08B56A46FDF707F99E
:10910000009808BD08B56A46FDF701F908BD08B525
:109110006A46FDF7E3F808BD08B56A46FDF7EAF8C8
:10912000009808BD08B56A46FDF718F9009808BD13
:1091300038B5044600258DF800506846FDF798FEC6
:1091400021686268086890420ED9401E0860017864
:10915000238AE26801FB0325227A2168101AC0B233
:109160000A79824200D208719DF80000FDF7A4FE42
:10917000284638BD38B5054600208DF800000C465D
:109180006846FDF775FEE868298A201AB0FBF1F100
:109190002A681068431C136001709DF80000FDF7F9
:1091A0008BFE38BD10B530B1017A42680368891A68
:1091B000C9B21A6006E00E2010BD03681A68541C7C
:1091C0001C601170491EC9B2F7D2006800210171FC
:1091D000084610BDC20800F007030120895C9840D2
:1091E0000840704728B1A1F11702E12A03D30720F4
:1091F00070470E20704701800020704710B560B1A5
:109200000161F72120F8021B20F8021BFB2100F866
:10921000021BFFF7CDFC002010BD0E2010BD00008A
:10922000F0B5858893B00C46002D39D10188002611
:109230003F4F24293BD006DC102909D011290CD03E
:10924000232958D14FE03A290BD0552953D129E091
:109250000146204601F0E0FC4DE0A01DFFF7A8FC10
:1092600049E02246408934F8061F814200D808466A
:109270006080172800D217206080106970B1607973
:1092800060B1D7E90001CDE90301ADF80E50608867
:10929000ADF81000136903A910469847667126714E
:1092A00013B0F0BD0146204601F00AFD23E0011D88
:1092B0002C2206A8FDF7DAF8BDF81800BDF81C202E
:1092C00004EBC0014A732269AAB1D7E90423CDE9AE
:1092D0000423ADF81200487B8DF814002269204663
:1092E00004A9904707E0017A207B884200D201461A
:1092F0002846FFF7C9F8A07A0028D1D0E18828468F
:10930000A5DF012580B11128CAD001F0CBF80246B3
:109310000848094913B0401AC00805EB0040BDE8F1
:10932000F04006A100F0B8BCA672E572B8E70000F4
:10933000B0BC020098C7020098C7020073645F6265
:109340006C655F67617474635F65786368616E679D
:10935000655F6D74755F726571756573742829201A
:1093600072657475726E65642025732E00000000AE
:1093700020B10278DE2A03D0082070470E20704703
:1093800041800020704760B159B10278DE2A0AD0CE
:1093900009684160DE2101704FF6FF7141800020B5
:1093A00070470E207047082070477FB5054600299A
:1093B0004DD0002D4BD008780C46DE2847D1A88828
:1093C0006188884202D1204602F0B6FB2888012835
:1093D00025D002283BD011283AD0512837D135F872
:1093E000040F6188884232D1A978A81C02292ED1A5
:1093F000017A042903D0062901D0052927D10021AB
:10940000009102228DF8002001914FF4C072029168
:109410000391ADF80420007A05280FD010E0297AD6
:109420002046012913D1A988428891420FD10121F8
:10943000017204B0BDE8704002F07EBBADF80410CC
:1094400028886946B0DF002801D0616888477FBD61
:10945000A88861888842FAD14FF6FF7060807FBD8E
:1094600000F180400068002800D00120704708B556
:1094700000F18040002101600068009008BD0000FC
:1094800070B50D4C0125207808B185260EE000202E
:10949000A06060602061E060084801F047F806467F
:1094A00000F06EFF08B901F02BF8257001F020F8EC
:1094B00000B1A570304670BDA43400204183020085
:1094C00038B500258DF800506846FDF7D1FC084CF2
:1094D000E068401EE060E06828B901F009F810B9C2
:1094E00001F034F8A5709DF80000FDF7E5FC38BDEB
:1094F000A4340020F0B505460478154889B0164616
:1095000040F82420124A0869121DA2F1080742F807
:109510002400487F385520226846FCF7A7FF0494B2
:109520002878385C48B10EB10A4A00E0002269464A
:10953000281D01F0A5F909B0F0BD0EB1064A00E002
:109540000022694605F10C0001F04EF8F3E7000037
:10955000302B0020B9B802005DB7020030B40378A8
:10956000054CE35C1BB130BC001D01F0BFB930BC41
:109570000C3001F0A3B800002C2B002030B403788D
:10958000054CE35C1BB130BC001D01F031BA30BCAE
:109590000C3001F009B900002C2B00200FB408B5E5
:1095A0000399002904D004AA00926A4600F00FF83B
:1095B00001B05DF814FB10B582680446002A05D09E
:1095C000D4E90403216898470020A06010BD2DE96C
:1095D000FC4791460C00804676D014F8011B39B147
:1095E00025290ED04046FEF7A3FD20780028F4D1AF
:1095F00098F80C00002867D04046BDE8FC47FFF70C
:10960000DABF0020012221782B291BD02D2902D07E
:10961000302908D102E040F0010001E040F00200F2
:10962000641C002AEFD100252A290ED02178A1F14F
:1096300030020A2A11D205EB850201EB4205641CB7
:10964000303DF1E740F00400EAE7D9F800100B1DC7
:10965000C9F800300968641C0D44217800232E29C4
:109660000BD114F8011FA1F130020A2A05D203EB35
:10967000830201EB4203303BF3E76C290DD06829EC
:109680000BD0692921D00BDC252918D0582931D0DD
:1096900063290ED0642915D117E014F8011FECE7F7
:1096A000702969D0732932D075291BD0782909D146
:1096B00020E0D9F80000011DC9F8001001784046EB
:1096C000FEF736FD641C90E76CE0D9F800100A1D27
:1096D000C9F800200968CDE900500A224046FFF78A
:1096E0007BF9EFE7D9F800100A1DC9F800200968D6
:1096F0000A2206E0D9F800100A1DC9F800200968FE
:109700001022CDE90050404602F07CF9DAE7D9F8A2
:10971000001000270A1DC9F800200E68C00705D1F7
:1097200012E04046761C7F1CFEF702FD31780029CE
:10973000F7D104E0202140466D1EFEF7F9FCBD4242
:10974000C0D9002DF6D1BDE74EB13046FCF7B2FED0
:10975000074604E0202140466D1EFEF7E9FCBD42AD
:1097600006D9002DF6D103E04046761CFEF7E0FC5A
:1097700031780029F8D1A5E7D9F80000011DC9F812
:109780000010056830214046FEF7D2FC78214046A3
:10979000FEF7CEFC08200021CDE90001034610228F
:1097A0002946B0E7BDE8FC8770B541EA4201DDE932
:1097B00004564FF0A04441EA830141EA052104EB3D
:1097C000800041EA0641C0F8001770BD70B541EA5B
:1097D0004201DDE904564FF0A04441EA830141EA29
:1097E000052104EB800041EA0641C0F8001770BD76
:1097F0001CB500220B46009211460192FFF7D4FFE0
:109800001CBD1CB500220B46009211460192FFF7C9
:10981000DDFF1CBD1CB5002100910B46012201910A
:109820001146FFF7C1FF1CBD1CB5002100910B467E
:10983000012201911146FFF7C9FF1CBD4FF0A04264
:1098400002EB8000D0F8002722F44032C0F8002755
:10985000D0F8002742EA0141C0F800177047000025
:1098600038B5094B44181B6800936B4608E000BFED
:1098700053F82010D1F8205520C2C1F82055401CC3
:109880008442F5D838BD0000D8BC020001224FF058
:10989000A043824011B1C3F808257047C3F80C25D6
:1098A00070470000034908B50844002101600068C2
:1098B000009008BD0060004002494058012800D0D7
:1098C000002070470060004030B5154A0146002076
:1098D000D2F8104423460AE0DB681D79854205D1A1
:1098E000401C0A28F6DB4FF0FF3030BD1B68002B10
:1098F000F2D1431CF9D0CB681871D2F8103443B1BF
:10990000DB68CC681B682360D2F81024D268116031
:1099100030BDC2F81014C96800220A6030BD0000D2
:109920009C3700207047FCF7A9BE704708B5034A72
:1099300000924023024A00F005F808BD2DB2020053
:1099400004360020F0B595B01C4615460F46084673
:109950001A9E00F0EDFA182109A8FCF7A0FD0E965A
:10996000CDE909540023082203A9384600F0F5FA8E
:1099700005980690BDF81000ADF81C00BDF8120067
:10998000ADF81E0000208DF821000398082600F095
:109990000300012802D0022818D032E00398334691
:1099A000850AC0F3C2008DF8200003980FA9C0F308
:1099B0008314A200384600F0D0FA09A8009006AB44
:1099C00022460FA9284600F00FFA1AE00398840DEA
:1099D000C0F3C2008DF82000082C01D2254600E01B
:1099E000082533462A460FA9384600F0B6FA2E4419
:1099F000641B09AB06AA29460FA800F05DF9002CEC
:109A0000EAD1384600F09AFA15B0F0BD0A4A0129A9
:109A100002EBC00007D0022907D0032907D0042990
:109A200007D000207047022070470420704700795B
:109A3000704740797047000098C7020010B5FFF7E3
:109A400072FF04210348FFF73FFF02490120C96864
:109A5000487110BD88C702002DE9F04F8DB0FEF7A8
:109A60007FFB18B100200DB0BDE8F08F7E4C4FF0A9
:109A7000000BC4F818B4BFF34F8F7C49A068029064
:109A80000D68D846284004EB80000BE0D4F8180499
:109A900070B961680298814201D8A160E2E728406C
:109AA00004EB80000C3002A9FFF72EF80028EDD15E
:109AB000002005AA029901EA050304EB8303491C6F
:109AC000DB6842F82030401C02910228F2D305984E
:109AD00000F00300022802D001284DD0AAE005982A
:109AE0005022810D8946B2EB905F00D850210E467E
:109AF00066F39F50059008315D4800F0D0F90700EB
:109B000078D000F015FA4346082205A9384600F03F
:109B10002CFA029908F1080A2940681A8000001DF1
:109B2000864222D9504D0C3530B1C2B204EB8101CE
:109B3000301A90460C3104E02946F2B200259046D6
:109B40002846C6B25346384600F00FFA0AEB08031F
:109B500025B132462946384600F007FA029909F144
:109B6000030001EB900002903BE004EB81015346BF
:109B7000324638460C31EFE70598C0F383100628CB
:109B800000D30620059960F38911C1F38310801C6E
:109B900005918100364800F082F907004AD000F0B4
:109BA000C7F94346082205A9384600F0DEF908F156
:109BB000080800260FE00298434600EA0501401C11
:109BC00004EB81010290042238460C3100F0CDF9FB
:109BD00008F10408761C0598C0F38310B042EAD857
:109BE00047B1D4F81054D4F8180478B1384600F0CE
:109BF000A5F934E01EE0E8684079012804D12A681C
:109C00002846394612689047E8680568002DF2D169
:109C1000384600F093F98DF800B06846FDF728F952
:109C2000D4F8180408B90298A0609DF80000FDF768
:109C300043F914E0D4F8104405E02168204689680F
:109C40008847E0680468002CF7D10A480A49401A9E
:109C5000C008022101EB004008A100F019F8FEF74E
:109C60007FFA80F00100FEE69C370020AC2B00203C
:109C700020C8020000C8020098C702004261636B5E
:109C8000656E647320666C7573686564000000001F
:109C900000231A4601F0DCBB08B5012300926A4696
:109CA00001F0D6FB08BD1CB5CDE9002302236A46AE
:109CB00001F0CEFB1CBD00002DE9F0470E468046AA
:109CC0001C469246082940D894F80C900020207336
:109CD0001946104601F016F90025B54206D218F8CB
:109CE00005201BA12046FFF759FC03E01AA12046DE
:109CF000FFF754FC6D1C082DEFD318A12046FFF789
:109D00004DFC0025B54212D218F805707E2F08D8F8
:109D1000FCF7A8FB0068C05D10F03E0F01D03A468A
:109D200000E02E220EA12046FFF738FC03E00DA133
:109D30002046FFF733FC6D1C082DE3D3012221469A
:109D4000504601F0C1F884F80C90BDE8F08700009F
:109D50002025303278000000202020007C00000008
:109D60002563000020000000064910B5002008709F
:109D7000054800F0E1F8002803D1044800F036F966
:109D8000002010BD9C37002020C80200B8BE020091
:109D900002480349401AC0087047000020C802006A
:109DA00098C7020013B56846FFF7D0F808B1002045
:109DB0001CBD0248009950F831001CBD98C7020034
:109DC00070B508480125D0F81044057007E0E06838
:109DD00045712168204649688847E0680468002C7E
:109DE000F5D170BD9C3700202DE9FF4781460C9DC1
:109DF00000200C462F7B28739846164629461846A5
:109E000001F080F8072E42D2DFE806F004090F16B1
:109E10001F2A360049462846FFF7C0FB37E049466F
:109E200028462268FFF7BAFB31E0D4E9002349460F
:109E30002846FFF7B3FB2AE0A0680090D4E900238E
:109E400049462846FFF7AAFB21E0D4E90201CDE903
:109E50000001D4E9002349462846FFF79FFB16E09E
:109E600004F1080007C88DE80700D4E9002349463B
:109E70002846FFF793FB0AE004F108000FC88DE8BD
:109E80000F00D4E9002349462846FFF787FB00224C
:109E90002946404601F018F82F73BDE8FF872DE9E9
:109EA000F041058A80462D1F4819C01CB0FBF5F013
:109EB000C6B24046FFF73CF9041E19D000202071BD
:109EC00001206071E58000272546761EC4F80080D9
:109ED0000BE04046FFF72CF960B16179491C6171D4
:109EE000286005467F1CC0F80080B742F1D32046A9
:109EF000BDE8F081204600F002F80020F8E72DE9E7
:109F0000F041457901466B1E002201E00968521CB0
:109F10009A42FBD30F680146002605E038460C68DC
:109F2000FFF728F92146761CAE42F7D3BDE8F08151
:109F30000121001DFFF7DAB8FFF734B910B5044668
:109F40000121001DFFF7EEF810F0FF0F04D12046AD
:109F5000BDE81040FFF7D3BF10BD1CB50192012230
:109F6000009201AAFEF7B2FF1CBD1CB501920022AF
:109F7000009201AAFEF7AAFF1CBD0000064910B519
:109F800000204870091D0860BFF35F8F0349044833
:109F900000F01AFA002010BD942B002050BD0200E2
:109FA000F835002008B500208DF800006846FCF761
:109FB0005FFFF1EE100A20F09F00E1EE100ABFF300
:109FC0005F8F08494020C1F880029DF80000FCF72F
:109FD00073FF00F0D5F908B141DF08BD20BF40BFD5
:109FE00020BF08BD04E000E0FCF71ABE8268002133
:109FF000916082681161826851618268D160826873
:10A00000516080680160704708B500224250405896
:10A01000009008BD20B10349096801600020704725
:10A020000E2070473CBF02002DE9FE4307460E4656
:10A030000846FFF7EFFF00287CD10024009401942C
:10A0400006208DF800704FF00108ADF8040002946E
:10A050008DF8028069462020326869DF3649374A28
:10A06000891AC908012202EB014530B100F01AFA41
:10A07000024628463249FFF70FFE00948DF8018012
:10A080008DF80240019402948DF803406946402007
:10A09000326869DF30B100F005FA024628462949E6
:10A0A000FFF7FAFD00948DF80070F720ADF802007C
:10A0B0000194029469462320326869DF30B100F0D0
:10A0C000F1F9024628462049FFF7E6FD0094019485
:10A0D00002948DF8008069460120326869DF30B152
:10A0E00000F0E0F9024628461849FFF7D5FD4FF485
:10A0F000B0600090019402946946A120326869DF43
:10A1000030B100F0CFF9024628461149FFF7C4FDEF
:10A110000094019402948DF800406946A0203268B2
:10A1200069DF30B100F0BEF9024628460949FFF761
:10A13000B3FD0020BDE8FE8310C8020098C70200EE
:10A14000DCC5020024C6020070C602003CC5020045
:10A1500088C50200E8C402002DE9F0410546076801
:10A1600060DF804619491A482A68081AC608BA42A8
:10A1700019D9022000EB064416A12046FFF788FDFE
:10A1800020463A461FA12B68FFF78DFD4FF0805007
:10A19000D0F80C012968800200F10050421A2046D4
:10A1A00025A1FFF779FDB8F100004FF001040AD0B6
:10A1B00000F078F9024604EB06402AA1FFF76CFD97
:10A1C0004046BDE8F0812F480470F9E710C802004E
:10A1D00098C70200496E73756666696369656E7437
:10A1E0002052414D20616C6C6F6361746564206620
:10A1F0006F722074686520536F6674446576696376
:10A20000652E00004368616E6765207468652052A2
:10A21000414D207374617274206C6F636174696F57
:10A220006E2066726F6D203078257820746F203034
:10A230007825782E000000004D6178696D756D20DD
:10A2400052414D2073697A6520666F72206170708B
:10A250006C69636174696F6E20697320307825784A
:10A260002E00000073645F626C655F656E61626CF6
:10A270006528292072657475726E65642025732EB9
:10A2800000000000032C002030B51548ADF5017D1D
:10A290000078002821D04FF4FA7500BFADF80052C5
:10A2A00080A9684661DF38B1052816D00DF5017D1B
:10A2B000BDE83040FCF7B4BC6C460A497DA800F00C
:10A2C00083F806E0D0E90021204690477DA800F001
:10A2D00092F87F980028E1D0F4E70DF5017D30BDBC
:10A2E000032C002040BF02007CB5194C207808B137
:10A2F00008207CBD0120A070002000F061FF112823
:10A3000019D0002000F074FF124800260068019068
:10A310008DF800606846FCF7ABFD0F4901A810DF1F
:10A3200005000AD0002020709DF80000FCF7C4FD55
:10A330002DB128467CBD00207CBD0120F3E7A6702E
:10A34000667001F053F8012000F052FFF3E70000BF
:10A35000002C0020D4BE02009D6B02000EB5074900
:10A36000684600F031F805E0D0E9001088476846FB
:10A3700000F041F802980028F6D10EBDF0BE0200B0
:10A380000148007870470000002C00201FB5684687
:10A390004BDF30B1052814D004B0BDE81040FCF705
:10A3A0003FBC084901A800F00FF806E0D0E9002101
:10A3B0000098904701A800F01EF803980028E6D006
:10A3C000F4E71FBD5CBF0200016009684160AFF3A4
:10A3D000008010B5D0E900215368994201D10021D5
:10A3E00004E0D1E90034A34202D01946816010BDD7
:10A3F00008314160F0E7816800290BD0026892685B
:10A400000A44826041684B689A4203D10831416036
:10A41000FFF7DFBF704770B50D460646446804E09D
:10A42000B2682946904718B1246820680028F7D1FF
:10A4300020682860256070BD4068006870474168EA
:10A440000868002801D002680A60704702460020B0
:10A45000526806E08B4203D1086810600120704703
:10A460001A461368002BF5D1704700000C4A10B54E
:10A4700002F594730EE0991AC91001EBD1714910DD
:10A4800002EBC1010C68844201D90B4602E005D2FF
:10A4900001F108029A42EED3002010BD486810BDB9
:10A4A00070BD020000B5FFF7E1FF002800D10148B0
:10A4B00000BD00005CBD02004058002800D0012013
:10A4C000704708B5002242504058009008BDD0F8AF
:10A4D0000403084000D0012070474058002800D0F5
:10A4E0000120704708B5002242504058009008BD36
:10A4F00002480068002800D0012070470004014095
:10A5000008480068012110F0010F06D14FF0E0204B
:10A51000C02280F800248430C1670349012008600C
:10A520007047000000E100E01805004006490246BF
:10A5300000200B790BB1852070470A6001220A7157
:10A5400000224A7170470000382B0020022010B50D
:10A550004107C1F808034FF48270FEF788FF0549F0
:10A560000120086004480168C1F300410029FAD1C4
:10A5700010BD00000C00004018040040002802D06C
:10A58000014980010847704721BD02000121B1EB5C
:10A59000507F01D1012070470020704738B50D462B
:10A5A00000F0FCFC040014D000208DF80000684688
:10A5B000FCF75EFC207928B19DF80000FCF77CFCDC
:10A5C000112038BD0120256020719DF80000FCF7A6
:10A5D00073FC002038BD00000149024801F0D6B8E4
:10A5E00014350020002000402DE9F0410546007997
:10A5F00016460F4600EB40012D4A01EBC00102EB6D
:10A60000810494F82A1011B10820BDE8F08129498D
:10A6100051F820102868FFF7C1FF08B11120F4E7B6
:10A6200039462846FCF762FC6660386920603000D5
:10A630004FF001062FD03F7F4FF48E712868FFF74F
:10A6400040FF4FF4A2712868FFF73BFF28681A49C2
:10A65000C0F8041328684FEA471140F30730002878
:10A6600004DB00F1E02080F8001405E000F00F00AA
:10A6700000F1E02080F8141D286840F3073000281E
:10A6800009DB00F01F0106FA01F14009800000F12A
:10A69000E020C0F8001128680421C0F8001500204F
:10A6A000A061E06184F8290044F8140FA675ACE7B6
:10A6B00014350020DCBC0200800002002DE9F05FB0
:10A6C000054600794FF4017600EB400303EBC00030
:10A6D000344B03EB80040020636813B12B68C3F88C
:10A6E0000863A3694FF000096BB1E06938B1606895
:10A6F00010B12868C0F804631120BDE8F09FE26142
:10A700000120216105E0C4F82490A261E160C4F851
:10A710001C9094F82910014302D1284600F013FD43
:10A7200060680028286803D0C0F804630020E4E7CC
:10A730004FF4A2763146FFF7C4FEB2464FF4927B47
:10A7400059462868FFF7B8FE06464FF4847128681A
:10A75000FFF7B2FE804651462868FFF7ADFE074678
:10A7600048EA07003043EBD056EA070007D12146FC
:10A77000286800F0B9FCA169606A8142E0D8C4F899
:10A7800018900EB10320B8E70FB10F20B5E794F889
:10A79000291001200029296801D00860C6E7486017
:10A7A000C4E70000143500202DE9F05F054600796C
:10A7B0000B4600EB400101EBC000244901EB800493
:10A7C000284600F045F810B11120BDE8F09F626105
:10A7D0004FF00009C4F82090A36084F828904FF44B
:10A7E0008E784E4641462868FFF76BFE28684FF08A
:10A7F000010AC0F808A02146286800F0F7FE60684A
:10A8000008BBD5F800B067690FE000BF94F82800D6
:10A8100008B10F2615E041465846FFF74DFE0028C7
:10A82000F4D02146584600F0E1FE206AB842F2D347
:10A83000574641462868FFF73FFE0028F9D02868B0
:10A84000C760C4F814903046BFE7000014350020FC
:10A85000007900EB400101EBC000044901EB8000EE
:10A860004069002800D00120704700001435002006
:10A870000149024801F038B840350020002000406E
:10A880002DE9F0410546164600790F46154A00EBC2
:10A89000C00102EB810494F8201011B10820BDE83A
:10A8A000F081114951F820102868FFF777FE08B1B0
:10A8B0001120F4E739462846FCF75CFB66603869EE
:10A8C00020601EB1397F2846FEF7DAF82868082193
:10A8D000C0F800150020A061E0616061012184F8EA
:10A8E0002010DCE740350020E0BC02002DE9F05FDD
:10A8F000044600790E4600EBC001DFF8F0A01746D1
:10A900000AEB81053046FFF741FEB0B168684FF0B1
:10A9100000084FF4047910B12168C1F80893A869C0
:10A920004FF0000B80B1E86948B1686810B1206849
:10A93000C0F804931120BDE8F09F1020FBE7EF6101
:10A940004FF001082E6102E0EE60C5E9067B0025AC
:10A950004FF488712068FFF7C5FD4FF4A27120689D
:10A96000FFF7C0FD2068C0F83465C0F8387520686E
:10A97000B8F1000F12D0D0F8001241F02001C0F859
:10A9800000122079D04600EBC0010AEB810040683C
:10A9900038B12068C0F804932846CCE70121016053
:10A9A000EFE74FF4887A4FF4A27951462068FFF719
:10A9B00094FD074649462068FFF78FFD06464FF491
:10A9C00092712068FFF789FD014647EA06000843B7
:10A9D000EBD0227902EBC20308EB8302C2F818B075
:10A9E00001B10325002ED7D00F25D5E74035002033
:10A9F0002DE9F04704460E460079274900EBC000D8
:10AA000001EB800517463046FFF7C0FD30B1204608
:10AA100000F044F820B11120BDE8F0871020FBE7DA
:10AA20006F61AE604FF490774FF0000839462068B0
:10AA3000FFF758FD4FF4AC7631462068FFF752FD22
:10AA40002068AA686969C0F84425C0F848152068DC
:10AA50004FF00109C0F808906868D0B9BA4651466D
:10AA60002068FFF73AFD074631462068FFF735FDBD
:10AA70000743F4D010B14FF00F0808E02068C0F889
:10AA80000C9031462068FFF728FD0028F9D00020FF
:10AA900068614046C0E70000403500200079054964
:10AAA00000EBC00001EB80004069002800D00120CD
:10AAB00070470000403500202DE9F0410546007840
:10AAC000002828D1154816490026401AC00801213F
:10AAD00001EB004710E02869805DFCF79FF9040056
:10AAE00009D0112CF7D0384622460EA1FFF7D4F832
:10AAF0002046FCF795F8761CA88AB042EBD8A98AC4
:10AB00002869084410F8010C0D2804D10A20FCF72C
:10AB100085F91128FAD0BDE8F081000000C80200D4
:10AB200098C702004661696C656420726563656957
:10AB300076696E67204E5553206D65737361676546
:10AB40002E204572726F7220307825782E200000FA
:10AB500003490860034801680029FCD070470000E1
:10AB600004E5014000E4014010B550B103280CD1C8
:10AB70000220FDF79FF9002807D0BDE81040FCF740
:10AB80004FB8BDE8104000F011BC10BD7047000088
:10AB90000078002807D104483B21408876DF002850
:10ABA00001D0FCF73DB87047E02A0020F0B58BB02B
:10ABB000002601960D4604468988406901AAFCF7E3
:10ABC0006BFA0AA8CDE908600227ADF82070ADF84D
:10ABD00022602189A88808AAADDF002819D1A069C0
:10ABE000002816D00998FDF784F8002811D0019E9E
:10ABF0000EB101203070182102A8FBF750FC8DF82F
:10AC000008700394A888ADF810000596A16902A801
:10AC100088470BB0F0BD000070B58D88027900EB5D
:10AC2000C5042273C97BA41D012902D0022904D1C5
:10AC300001E0008800E0408820802188608881420F
:10AC400011D92846A5DF0126B0B1112816D0FFF78B
:10AC500029FC02460B480C49401AC00806EB00408C
:10AC60000AA1FFF719F8A179E079814208D92846AD
:10AC7000BDE87040FDF708BC6671F4E72671F2E7A5
:10AC800070BD000098C7020098C7020073645F623D
:10AC90006C655F67617474635F65786368616E6734
:10ACA000655F6D74755F72657175657374282920B1
:10ACB00072657475726E65642025732E0000000045
:10ACC0007CB506468D88C88806EBC504A41D1728E8
:10ACD00000D217202188814200D8084660800020D9
:10ACE000207121882846B5DF60B1FFF7DBFB024603
:10ACF0000F481049401AC008012101EB00400EA185
:10AD0000FEF7CAFF6079002810D1306900280DD005
:10AD10001549D1E90201CDE90001ADF80250608882
:10AD2000ADF8040032696946304690477CBD0000AA
:10AD300098C7020098C7020073645F626C655F6722
:10AD4000617474735F65786368616E67655F6D7465
:10AD5000755F7265706C7928292072657475726EE2
:10AD600065642025732E0000B0BC0200F0B587B0EA
:10AD70000C4605468E1D8988406906AAFCF78CF9A9
:10AD800018216846FBF78BFB0195A088069AADF861
:10AD90000800039231882B89002704F112009942A0
:10ADA00002D17389022B0DD0AA8991421ED1A969C3
:10ADB00000291BD08DF8007004907089ADF8140044
:10ADC000A96911E0002A11D0FCF793FF20B1069980
:10ADD00001200870022002E00698077003208DF819
:10ADE0000000A969002901D06846884707B0F0BD76
:10ADF0000068012803D0022801D0002070470120FC
:10AE0000704700002DE9F05F2A4F06464FF0A04A38
:10AE10004FF0010B0024381990F95010491C3CD018
:10AE200090F85000314620F0C0052846FEF7D2F9D0
:10AE300020B3204600F040F881460AEB8500D0F8A8
:10AE40000007C0F30148B8F1020F18D002212846CC
:10AE5000FEF7F4FC0BFA05F1CAF820152846FDF7B9
:10AE60008BF957F820204AB14846B9F1030F11D0A9
:10AE7000B8F1020F05D0B8F1030F07D00DE00321A0
:10AE8000E5E74846B9F1010F04D006E04846B9F1BC
:10AE9000020F02D1014628469047641C042CBAD305
:10AEA000324601210020FEF7DBFC30680028B1D1DA
:10AEB000BDE8F09FB83400200249084490F85000E3
:10AEC00080097047B834002010B50C46017A052976
:10AED00008D0407A38B1084808A102682046FEF739
:10AEE0005DFB00E01AB106A12046FEF757FB2046A5
:10AEF000BDE81040FEF75FBBDC2B0020257300008F
:10AF00000D0A000038B5C3880D46044633B114A0BD
:10AF1000009015A216A12846FEF740FB217A0529CC
:10AF20001CD0607A48B1A088FEF770FD164951F830
:10AF3000202016A12846FEF731FBA0880021FEF74D
:10AF400031FF03461049207A143951F8202001B00E
:10AF50002846BDE830400EA1FEF720BB38BD0000FA
:10AF60001B5B306D000000001B5B313B33316D001B
:10AF700025734C6F67732064726F7070656420284E
:10AF800025642925730D0A00DC2B002025730000A1
:10AF90003C25733E2025733A200000000349884277
:10AFA00001D1034870470020704700000020004096
:10AFB000402B002070B50546FDF7E3FB134C40B174
:10AFC000D4E904024FF08071411842F10000C4E955
:10AFD000041000212846FDF721FB30B1606820B144
:10AFE000606800F07FFA0020606001212846FDF7CC
:10AFF00015FB18B1FDF7CCFCC4E90601284600F0AA
:10B000009DFA2846BDE8704000F034B8482B002077
:10B0100070B5054600200C460870FDF7B9FCD5E96F
:10B020000223101A63EB010300263146361A9941B8
:10B0300012DAB0F5350F03D3FBF726FE0B494218A1
:10B040004FF4960300210A48FDF7A7FB10B10D2825
:10B0500006D009E0012070BD00210548FDF7D4FAB3
:10B06000284600F03FFA2070002070BDFFFFB400BA
:10B07000502B0020F8B51A4C074600261948FFF758
:10B08000DBF9D0B1616871B1D0E902106268D2E930
:10B090000232C91A904120D26068007F18B16168FD
:10B0A0001048FFF7B8F900F0CDF905466946FFF7FB
:10B0B000AFFF98B1606840B10AE0606800280CD129
:10B0C0003846BDE8F840FDF764BB3846FDF75DFB48
:10B0D00065609DF800000028D0D1F8BD6660CDE71E
:10B0E000482B0020ECBC020070B5054688690C4670
:10B0F00000284FF4847128460AD0FFF7E2F9D5F80A
:10B100001805626AE1688854606A401C606270BD1C
:10B11000FFF7D7F9D5F8180570BD1FB501238DF8D5
:10B120000030CDE90121D0E90012684690471FBDEB
:10B130001FB501238DF80030CDE90121D0E90012BF
:10B14000684690471FBD10B5044600684FF49271E1
:10B15000FFF7B7F94FF484712068FFF7B2F9206860
:10B160000121016010BD000038B50021012548B162
:10B17000012810D003280DD1FFF7C2F9BDE83840EF
:10B18000FEF79EB94FF0E020C0F88051BFF34F8F1B
:10B19000BFF36F8F38BD8DF800106846FBF768FE6F
:10B1A000064C207808B9FEF76BF9E068401CE060B7
:10B1B000A5709DF80000FBF77FFE38BDA434002089
:10B1C0003EB5044609496846FFF7FEF808E000BFAF
:10B1D000D0E900212046904730B16846FFF70BF9CF
:10B1E00002980028F4D13EBD11203EBDD8BE020019
:10B1F0003EB5044608496846FFF7E6F807E000BF99
:10B20000D0E90021204690476846FFF7F4F80298FD
:10B210000028F5D13EBD0000E4BE02000249896964
:10B22000002900D0084770470C3400202DE9F04178
:10B230001400884618D000250E4F032608EB0501A0
:10B2400022460020FBF71CFA0544241A40B938783E
:10B25000002809D008494FF47A408847761E05D067
:10B2600001203870002CE9D1BDE8F0810020387051
:10B27000FAE70000A02B0020B1BE02002DE9F0414A
:10B280000746806A14468846C8B3002531E000BFEF
:10B29000B96A05EB450001EB8006B088801CFE28EA
:10B2A00002D90C20BDE8F0812288401C08F8020079
:10B2B00020881622401C80B2208008F800202088B8
:10B2C000401C80B2208000EB0801308800F095FB24
:10B2D0002188084480B22080B28842B1B16871B13F
:10B2E0004044FBF7C3F82088B188084420806D1CD7
:10B2F000EDB297F82C00A842CAD80020D2E7FFE7A9
:10B300000720CFE710B586B017480590002405A99F
:10B310001648FEF738F808B1FBF782FC1448049091
:10B3200004A91448FCF740FC08B1FBF779FC12486B
:10B3300000900394012064218DF80C108DF80D000D
:10B3400001948DF80E008DF804008DF80F00074869
:10B35000029469462838FCF783F9002801D0FBF7EE
:10B360005FFC06B010BD0000E99F0200242F002002
:10B37000B9AA0200EC2A00208DAB02000A78062848
:10B3800022F0FF020A7010D2DFE800F0030507097F
:10B390000B0D002008E0112006E0212004E0312000
:10B3A00002E0122000E022200870704710B5002053
:10B3B000FCF780FD08B1FBF733FCFCF701FD08B199
:10B3C000FBF72EFC33DF002803D0BDE81040FBF76D
:10B3D00027BC10BD002805D103490120487000207A
:10B3E000FCF79ABF70470000A434002010B5162067
:10B3F000FBF78EFBA0B1114890F800044009082823
:10B4000011D20121814011F0EC0F0CD00C48826860
:10B410004FF480016AB1016841F48001016010BD00
:10B4200042F2010001E042F20200BDE81040FBF7E9
:10B43000F7BB4FF0E020C0F8001110BD16E000E0AF
:10B44000EC3500200148FEF7FABF0000ECBC02001A
:10B450002DE9F84F074621489146884605681E4663
:10B46000012269461846FCF719FEDFF874A060B3A4
:10B47000009800210446801C0AE000BF00EA050293
:10B4800059F821C00AEB8202401C491CC2F80CC0CA
:10B49000B142F3D34FEA1749FDF7ACF8611C2940DC
:10B4A0000AEB810149EA00422C40CA600AEB8401A0
:10B4B000C86867F3C50066F3891068F39F2020F021
:10B4C0000300401C20F00400C8609AF8000001E06E
:10B4D000FEF7C2FA0028FBD1BDE8F88FAC2B0020A4
:10B4E0009C37002070B50446124800250078F8B15A
:10B4F000F4B1207FE0B1FDF74BFAD4E90223801AC2
:10B50000994110D32069002600B92677D4E90510A7
:10B510008847206960B1217F51B1D4E90221101818
:10B520007141C4E9020121460348FEF774FF012579
:10B53000284670BD482B0020ECBC0200F8B51B4C1F
:10B5400069462068FDF796FD00260127184D29E081
:10B55000017821B101290CD002291BD114E04168E6
:10B560000A7FBAB90F77416810480830FEF753FFD9
:10B5700010E041686868814201D16E600AE00B48C2
:10B580000830FEF763FF05E0FFF75CFF08B10677C0
:10B59000FAE72F7069462068FDF761FD694620686B
:10B5A000FDF768FD0028D3D1F8BD0000E4BC02001F
:10B5B000482B0020F8B50B4C0D460646694620681E
:10B5C000FDF742FD58B10670456069462068FDF7F9
:10B5D0005CFD10B10448FDF7C1F80020F8BD04205F
:10B5E000F8BD0000E4BC0200502B002070B50C46F2
:10B5F00005464FF48E71FEF764FF216AA068415C36
:10B60000206A401C2062C5F81C1570BD1FB50022C1
:10B610008DF800200291816801914261D0E9001209
:10B62000684690471FBD1FB500228DF8002002918B
:10B63000816801914261D0E90012684690471FBDC0
:10B6400038B5017841B1012901D002292FD14068D4
:10B65000BDE83840FBF7E4BA164C154D2078284475
:10B66000FBF770FB2078401CC0B22918207011F83D
:10B67000011C0A2904D00D2902D0A188884216D3C2
:10B68000012812D92078ADF800000A4863886A467C
:10B6900007490C30FCF754FA082806D01328F1D0DB
:10B6A000052802D008B1FBF7BBFA0020207038BD96
:10B6B000082C0020E02A00207CB50178254DA1B39C
:10B6C00001290BD002291DD18DF80010C068691C1A
:10B6D00001900122C81DFDF741FF30E0017A59B108
:10B6E000406801781C48FBF7C1FA1B4C012650B199
:10B6F0008DF8006001900DE016490122491CC81D1B
:10B70000FDF72CFF7CBDA068E168814205D00020D8
:10B710008DF80000696868468847A068E168081AE3
:10B72000A1888842E8D9AE707CBDFFE70A48094984
:10B730001030FBF780FA30B103208DF80000696803
:10B7400068468847F0E70349012201F10800FDF748
:10B7500015FFE9E76C2B0020CC3500201FB50A4609
:10B7600001788DF8001041680191017A8DF8081078
:10B77000C0680390044850F82210001F50F822209F
:10B78000684690471FBD0000342B00202DE9FF477D
:10B790000C4605464FF40071FEF799FE01274FF461
:10B7A0000178002618B34FF4927949462846FEF7EF
:10B7B00083FEE0B149462846FEF783FEC5F80883BC
:10B7C00094F8290000B96F6002208DF80000D5F8C8
:10B7D0008004C5F880040390A0690290E06801909D
:10B7E000A661E661D4E900126846904728E004218A
:10B7F0002846FEF76CFE18B34FF484712846FEF716
:10B800005BFEE8B121462846FFF76EFC616AA0693D
:10B81000884215D1E06938B1E268616AA0612069A7
:10B82000E6616662E06008E094F8290000B96F60A4
:10B83000C5F80883A661E268616A2046FFF76DFCDF
:10B840004FF48E7841462846FEF736FE80B1606997
:10B85000216A814202D294F8280028B34146284642
:10B86000FEF72FFE606918B161692046FFF7CEFE32
:10B870004FF4A27841462846FEF71EFE002818D055
:10B8800041462846FEF71DFE94F8290000B12F60BE
:10B89000A06900280DD0A661E268616A04B0204664
:10B8A000BDE8F047FFF739BC21462846FFF79EFE6A
:10B8B000DEE7BDE8FF8700001FB50A4601788DF876
:10B8C000001041680191017A8DF80810C06803905A
:10B8D000044850F82210001F50F822206846904774
:10B8E0001FBD0000342B00202DE9FF410C464FF412
:10B8F000927705463946FEF7F0FD0026B8B1394685
:10B900002846FEF7EFFD02208DF80000D5F88004F0
:10B91000C5F880040390D5F83C050290E0680190DA
:10B92000A661E661D4E900126846904723E04FF42F
:10B93000887739462846FEF7D0FDE0B139462846DB
:10B94000FEF7D0FDD5F83C15A069884213D1E06917
:10B9500060B1E268D5F8000220F02000C5F80002CE
:10B96000E069A0612069E661E06001E0A661E2684B
:10B970002046FFF7DDFB4FF4A27739462846FEF755
:10B98000ACFD68B139462846FEF7ACFDA06938B178
:10B99000A661E661D5F83C152046E268FFF7C8FBD2
:10B9A0004FF4907631462846FEF797FD60B1314658
:10B9B0002846FEF797FD0120E860606920B1D5F8C0
:10B9C0004C152046FFF72FFE4FF4AC763146284643
:10B9D000FEF783FD00280ED031462846FEF782FD93
:10B9E0006069002807D0D5F84C1504B02046BDE8A2
:10B9F000F041FFF718BEBDE8FF810870000A4870EB
:10BA0000022070472DE9F05F8346DDE90A4A994636
:10BA100090460D460846012703E000BFB0FBF8F052
:10BA20007F1C4045FAD2B94500D94F465FEACA703B
:10BA300012D18CB15FEA8A7002D5B9F1000F01D042
:10BA4000202607E0302605E031465846641EFCF704
:10BA50006FFB0CB1A742F7D35FF00106B9F1010FFC
:10BA600002D9A9F1010903E0B5FBF6F0404502D384
:10BA700006FB08F6F2E7DFF83C9000BFB5FBF6F0F6
:10BA800000FB165519F800105846FCF751FBB6FBA1
:10BA9000F8F6002EF2D15FEACA7009D0002C07D068
:10BAA000A74205D220215846641EFCF741FBF5E76A
:10BAB000BDE8F09F26BD0200F8B5054680B2FCF750
:10BAC00081FF040013D0154E207A0027317B884275
:10BAD0000ED2A8B204F10A0175DF28B1112806D0F0
