:020000040002F8
:10600000C05D0020C1630200C9630200CB630200CF
:10601000CD630200CF630200D163020000000000E4
:10602000000000000000000000000000D363020038
:10603000D563020000000000D7630200D9630200AC
:106040001D660200DB630200A96A0200DB63020036
:10605000DB630200DB6302007965020085660200F3
:10606000DB630200DB630200DB630200DB63020030
:10607000DB630200DB630200DB630200DB63020020
:10608000DB63020075660200DB630200DB63020073
:10609000DB630200DB630200CD670200DB6302000A
:1060A000DB630200DB630200DB630200DB630200F0
:1060B000DB630200DB630200000000000000000060
:1060C000DB630200DB630200DB630200DB630200D0
:1060D000DB630200DB630200DB6302000000000000
:1060E00000000000000000000000000000000000B0
:1060F00000000000000000000000000000000000A0
:10610000000000000000000000000000000000008F
:10611000000000000000000000000000000000007F
:10612000000000000000000000000000000000006F
:10613000000000000000000000000000000000005F
:10614000000000000000000000000000000000004F
:10615000000000000000000000000000000000003F
:10616000000000000000000000000000000000002F
:10617000000000000000000000000000000000001F
:10618000000000000000000000000000000000000F
:1061900000000000000000000000000000000000FF
:1061A00000000000000000000000000000000000EF
:1061B00000000000000000000000000000000000DF
:1061C00000000000000000000000000000000000CF
:1061D00000000000000000000000000000000000BF
:1061E00000000000000000000000000000000000AF
:1061F000000000000000000000000000000000009F
:10620000DFF80CD000F07AF900480047D1AC02006A
:10621000C05D002030B450E8012F93B2C4892344FC
:106220008489A34228BF1B1B0489A34202BFBFF37A
:106230002F8F002007E0C3EA020340E80134002C5E
:10624000E9D14FF001000A6030BC704750E8012FDF
:10625000C2EA024240E801210029F7D1704730B478
:1062600050E8022F1FFAA2F3C488A34202BFBFF373
:106270002F8F00200DE0C48923448489A34228BFC6
:106280001B1BC2EA034340E80234002CE8D14FF064
:1062900001000A6030BC704750E8022FC2EA224277
:1062A00040E802210029F7D17047034653E8022F46
:1062B000D988B2EB324F4FF0000017BF92B241EADB
:1062C000014142EA014104E05A68B2EB324F08BF93
:1062D000012043E80212002AE8D1704730B4044696
:1062E00054E8000F0D4644E80053002BF8D1156028
:1062F00030BC704730B4044654E8000F40EA010552
:1063000044E80053002BF7D1156030BC704730B41F
:10631000044654E8000F00EA010544E80053002B4E
:10632000F7D1156030BC704730B4044654E8000F14
:1063300080EA010544E80053002BF7D1156030BC1A
:10634000704730B4044654E8000F00EB010544E800
:106350000053002BF7D1156030BC704730B40446B1
:1063600054E8000FA0EB010544E80053002BF7D1DF
:10637000156030BC704770B404464FF0000054E81C
:10638000006F0D68AE4207BF44E80023012044E8D7
:1063900000630E60002B1CBF0020F0E770BC70474C
:1063A00030B4044654E8000F88422CBF451A054615
:1063B00044E80053002BF5D1156030BC7047000055
:1063C0000648804706480047FEE7FEE7FEE7FEE78F
:1063D000FEE7FEE7FEE7FEE7FEE7FEE7D167020025
:1063E000016202002DE9F05F0546002092469B46BF
:1063F00088460646814640241BE0284641464746DB
:10640000224600F06BF853465A46C01A914110D309
:1064100011461846224600F016F82D1A67EB0108BF
:106420004F4622460120002100F00DF817EB00092D
:106430004E41201EA4F10104DFDC484631462A46C5
:106440004346BDE8F09F202A04DB203A00FA02F11F
:10645000002070479140C2F1200320FA03F3194352
:106460009040704700487047D01E030040EA010387
:106470009B0703D009E008C9121F08C0042AFAD2FA
:1064800003E011F8013B00F8013B521EF9D27047BE
:10649000D2B201E000F8012B491EFBD27047002266
:1064A000F6E710B513460A4604461946FFF7F0FF13
:1064B000204610BD421C10F8011B0029FBD1801A98
:1064C000704730B504460020034600E05B1C934251
:1064D00003D2E05CCD5C401BF8D030BD202A04DB49
:1064E000203A21FA02F00021704721FA02F3D0404D
:1064F000C2F120029140084319467047064C074DEF
:1065000006E0E06840F0010394E807009847103483
:10651000AC42F6D3FFF778FEE435030004360300FF
:1065200070B58C1810F8015B15F0070301D110F855
:10653000013B2A1106D110F8012B03E010F8016B82
:1065400001F8016B5B1EF9D12B0705D40023521E05
:106550000DD401F8013BFAE710F8013BCB1A921C6D
:1065600003E013F8015B01F8015B521EF9D5A1426B
:10657000D8D3002070BD00002DE9F8430025DFF8D6
:1065800094804FF4807601242F460095304605F024
:10659000F3FC38B1D8F80403204203D0304605F0AC
:1065A000E1FC2543361D64007F1CB6B2082FEDD3F5
:1065B0004FF4BE74204605F0DFFC48B1204605F0DC
:1065C000D1FC45F000456A460121002005F0A8FCF9
:1065D00015F0FF0F16D0012600242E420ED008EB36
:1065E0008401D1F81005D1F81015C0F304200A4A2F
:1065F000C1F3014152F8242002B190477600641C97
:10660000082CEAD3002D02DA684608F065FEBDE8E2
:10661000F8830000006000400C35002070B54FF496
:106620008076304605F048F8114CB50560B130462B
:1066300005F049F80120C5F80803607920B9012068
:1066400060712168002088474FF48276304605F05B
:1066500033F800280AD0304605F035F80220C5F896
:1066600008032168BDE870400120084770BD0000A4
:106670007029002002490248091F0968006808477C
:10668000A82900202DE9FE434FF48278404606F009
:106690001BF94C4F00254C4C012600B3404606F038
:1066A0001BF994F82E0010B194F82F10D1B18DF889
:1066B0000050616801912189ADF80810E26832B19B
:1066C000218B618362602181E56010B102E0257455
:1066D00000E03E6021686846884784F82F5094F8AF
:1066E0002E0060B34FF48077384606F0EDF830B3F3
:1066F000384606F0F1F8628B94F82D108A420AD9D8
:10670000A2EB010080B260832289A2EB00006268E4
:1067100002EB400005E007D1E06828B184F82F6063
:10672000658306F0BFF804E08A4202D184F82F6046
:106730006583404606F0D0F82248001D06604FF4FD
:106740008877384606F0C0F848B1384606F0C4F8F5
:10675000257402208DF800002168684688474FF4B0
:106760008A77384606F0B0F828B1384606F0B4F813
:106770002574BDE8FE834FF000484FF48C796769BB
:106780001DE000BFB7FA87F028FA00F109EB800599
:106790008F43284606F098F888B1284606F09CF802
:1067A000A5F58C75E8088DF8040045F38000401CC1
:1067B0008DF800608DF80500216868468847002F35
:1067C000E0D1D6E7007000406835002006F042BAFC
:1067D000F0B5A449A4484FF080540B68D4F8302198
:1067E0000078D4F83411551CC0F3031006D0944639
:1067F00001270026BCF1060F03D00AE003F0FF0CCE
:10680000F6E7B4F82453DFF864C2C5F30425CCF8E6
:106810000050DDB2062D06D1032804D1DFF854C2A2
:10682000934DCCF87450551C04D09446BCF1060F1F
:1068300003D00AE003F0FF0CF8E7D4F84452DFF885
:1068400038C2C5F34235CCF80050DDB2062D08D170
:10685000032806D1894DD5F800C02CF0807CC5F8FE
:1068600000C0551C04D09446BCF1060F03D00BE0C9
:1068700003F0FF0CF8E74FF08045C5F80C61C5F850
:1068800010617D4D2D1F2E60DDB2062D08D103282D
:1068900006D1DFF8E4C103250CF1640CCCF80050FC
:1068A000DDB2062D10D103280ED1DFF8D4C10525A5
:1068B000CCF80050724D78352F60714D08352E6040
:1068C0000CF104063F253560551C04D016460D46D4
:1068D000062E03D05BE0DEB20546F9E7ED1E012D82
:1068E00055D9684D2D68684E3560664D2D1D2D6853
:1068F000361D3560634D08352D68361D3560614D98
:106900000C352D68361D35605E4D10352D68361DF1
:1069100035605C4D14352D68361D3560594D183580
:106920002D68594E20363560564D1C352D68361D64
:106930003560544D20352D68361D3560514D243558
:106940002D68361D35604F4D28352D68361D356054
:106950004C4D2C352D68361D35604A4D30352D682F
:10696000494E40363560474D34352D68361D35600B
:10697000444D38352D68361D3560424D3C352D6807
:10698000361D35603F4D40352D68361D3560551C30
:1069900003D01646062E02D007E0DEB2FAE7D4F89E
:1069A00058523A4E05F04F053560551C03D013463A
:1069B000062B02D008E0DBB2FAE735480368DB07B4
:1069C00002D06FF001030360062A07D1C91E022915
:1069D00004D93048016841F4806101602748743867
:1069E000016841F470010160BFF34F8FBFF36F8FF7
:1069F000D4E94C104FF01022062907D1C01E0328FD
:106A000004D9D2F808021C491C310860D2F80002EF
:106A1000002803DBD2F8040200281FDA012006F068
:106A2000D1FD1521C2F800121B480368002BFCD0D1
:106A3000C2F8041201680029FCD0002006F0C2FD53
:106A4000BFF34F8F0D48F0380168144A01F4E0613C
:106A500011430160BFF34F8F00BFFDE7114910489C
:106A60000860F0BDE00F00F0E80F00F04035014095
:106A70000DF0ADBA00C007403C050040FCED00E061
:106A8000105600400404001020C50040E40E0040F1
:106A9000000400403C17004000E401400400FA05F7
:106AA0000090D003682A00200148006800470000D9
:106AB0007829002002E008C8121F08C1002AFAD174
:106AC00070477047002001E001C1121F002AFBD16E
:106AD000704700000121202803DA81400548014069
:106AE00003E0402802DA2038814009B101207047D4
:106AF00000207047FC06FFBD2DE9F843804643F2B5
:106B0000020659B9694607F0F1FDB04202D008B15A
:106B100000F09EF99DF80000800744D40021404613
:106B200007F0EEFD05003ED0112D3CD01F48204956
:106B3000401AC708022000EB07440D2D0AD00B2D88
:106B40001DD0B5421FD11B4920464246BDE8F8433F
:106B500005F018BC20464246174905F013FC1321E6
:106B6000404676DF00281ED006F026F9024601B026
:106B700020464346BDE8F04310A105F00ABC20467C
:106B800042461C49E2E7284606F016F90246012073
:106B900000EB0740434618A105F0FBFB2846BDE883
:106BA000F84300F055B9BDE8F88300005C360300F7
:106BB000143603008C2703001827030073645F62F8
:106BC0006C655F6761705F646973636F6E6E656348
:106BD0007428292072657475726E6564202573208F
:106BE0006F6E20636F6E6E5F68616E646C652025EA
:106BF000642E0000D8270300417373657274696EB8
:106C0000672E20706D5F636F6E6E5F736563757264
:106C10006528292072657475726E6564202573205D
:106C20006F6E20636F6E6E5F68616E646C652025A9
:106C3000642E00000EB51249124806F007FA08B19A
:106C400000F006F90F4A121D07CA8DE807006946D1
:106C5000002006F0A5F908B100F0FAF801210A4871
:106C600006F04CF908B100F0F3F807480121801C48
:106C700006F044F9002801D000F0EAF80EBD00004B
:106C800009FE0200B41803007022002010B560B1A4
:106C900059B102780B785208B2EB530F05D1062296
:106CA000401C491CFFF70DFC08B1002010BD01205D
:106CB00010BD800701D00020704701207047C368D5
:106CC0008B4206D811440069491E814201D8012037
:106CD00070470020704790F82400012801D01F2041
:106CE0007047EE20704710B501220221002001F00C
:106CF00059FB08B1072810D107220221012001F019
:106D000051FB08B1072808D100210A22084601F0EA
:106D100049FB08B1072800D1002010BD10B560B1B3
:106D20000B480C49401AC008032101EB00400AA19E
:106D300005F024FB08F060FA03E003210A4800F0A4
:106D4000A2FC002803D0BDE8104000F081B810BDBF
:106D5000E436030014360300457261736520626FE8
:106D60006E64732100000000102B002070B58CB001
:106D700015460E4600236C46C3F10F01415CE154F9
:106D80005B1C102BF8D30D2104F11000FFF787FBDB
:106D90000020C0F10F02315C2244401C1174032812
:106DA000F7D3684646DF0020C0F10F01214491F877
:106DB00020102954401C0328F6D30CB070BD0000ED
:106DC0000149C97800F0DABE4429002072B605F006
:106DD0007FFB00BF05F0B6F90028FBD1114812492E
:106DE000401AC408012000EB044010A105F0C6FAC7
:106DF00011480068C00700D000BE022000EB04402C
:106E00000EA105F0BBFABFF34F8F0B48E4380168C1
:106E10000E4A01F4E06111430160BFF34F8F00BFE0
:106E2000FDE70000E4360300143603004661746198
:106E30006C206572726F7200F0ED00E0537973742C
:106E4000656D207265736574000000000400FA052A
:106E50000EB500210091CDE901106A4644F201000F
:106E6000FFF7B4FF0EBD0000014802F0F4B80000C7
:106E7000882900203AB100680129426100D0002130
:106E800001610020704707207047000038B51148A5
:106E900008235822416800910F49006804F0FFF868
:106EA000002815D10D4A69460D4802F0D9F80400B2
:106EB0000ED101210A4802F04EF90123094A194670
:106EC000074802F0A0F8064901200839087020465A
:106ED00038BD0000381B0300F835002075FC0200A7
:106EE00088290020FFFF7F0070B50446007F0D4613
:106EF00008B1002070BDA26103F092F8401941F181
:106F00000001C4E90201206900B125612146BDE804
:106F10007040002009F04EBF014600200877012094
:106F200009F048BF30B5EFF3108172B60D4A94688E
:106F3000012324B10370002900D162B630BD9360F3
:106F40004FF0E023D3F88051074C25401560C3F87B
:106F50008041D3F8844154605A17C3F88421002239
:106F60000270E8E750360020FC06FFBD0B498A6836
:106F7000002A11D000280FD1EFF3108072B60B68F1
:106F80004FF0E022C2F800314B68C2F80431002211
:106F90008A60002800D162B6704700005036002099
:106FA0002DE9F041064608680C46411C4FF0A04709
:106FB0004FF0010506D005FA00F1C7F80815206862
:106FC00004F088FF6068411C02D0002104F070FFCB
:106FD0003168A069C1F82405607D227D31681043C5
:106FE000C1F86C05D4E900123068C0F81425C0F867
:106FF0000C15207D012815D1A068411C02D000216C
:1070000004F056FFE068411C05D08540C7F80855DC
:10701000E06804F05FFFD4E902123068C0F8082588
:10702000C0F81015BDE8F0812DE9F041064608686A
:107030000C46411C4FF0A0474FF0010506D005FA61
:1070400000F1C7F80815206804F04EFF6068411C85
:1070500002D0002104F035FF3168A069C1F8240591
:10706000607D217D32680843C2F86C05D4E90012C6
:107070003068C0F80C15C0F81425207D012815D102
:10708000A068411C02D0002104F01BFFE068411CF5
:1070900005D08540C7F80855E06804F025FFD4E91D
:1070A00002123068C0F80825C0F81015BDE8F0815C
:1070B00003F0DABC2DE9F047814605884A484FF0D5
:1070C00000088AB001784246284600F06FFD99F822
:1070D0000500400701D4002176E005F58077B8B2BD
:1070E00005AB0122072106F07FFF04003F48404A1C
:1070F0004FF00101A0EB02004FEAD00001EB004687
:107100000AD0204605F058FE024630462B46394943
:1071100005F03FF9214629E0284603F01DFA4FF615
:10712000FF71044688422BD18A46069803F07EF907
:107130000446504510D00146284603F0EDF9284694
:10714000FFF73EFEE0B9284609F0C4F82846FFF7ED
:1071500037FE0028BFD013E007F01CF90446504565
:1071600008D1304624A105F009F90421284609F088
:10717000DFF8B0E70146284603F0CEF94FF00108EA
:10718000B8B22246072106F0A7FF07001BD0862FC2
:107190001ED005F011FE024630462B4623490094CE
:1071A00005F0FFF83946284609F0C2F800214846A4
:1071B00006F012FEB8F1000F02D0204603F0B6F937
:1071C0000AB0BDE8F0870121484606F005FEF7E762
:1071D000142217496846FFF749F9ADF8025068468E
:1071E00002F06AF9EFE7000044290020643603004A
:1071F00014360300D42A0300436F756C64206E6F4D
:107200007420616C6C6F63617465206E65772070AB
:107210006565725F696420666F7220696E636F6D69
:10722000696E6720626F6E642E000000F02B030011
:10723000D81A030070B5044690B0087B0D468DF84F
:107240003800202105A8FFF72AF942F61920ADF8E9
:1072500014000120ADF81800ADF81A000EA8079030
:10726000617C9DF82100A21D61F3041040F0020032
:107270008DF82100A87B8DF82700687B8DF825000C
:10728000A08805A901F04EFA00281CD1A968E1B137
:107290000FA800F0C6FF064614216846FFF7FFF866
:1072A00042F60810ADF80000E87B8DF806000FA844
:1072B000ADF80A60ADF80E600490E08804F10E02AB
:1072C000694601F0FBFC10B070BD0020E081FAE7D8
:1072D00010B505F005FF002803D0BDE81040FFF70A
:1072E000B7BD10BD0A4601461046AEDF704770B507
:1072F0001500044609D00020286034B1206820B170
:10730000A079800703D0072070BD0E2070BD08460D
:1073100000F0B4FBC0B2142804D02179814203D814
:10732000042070BD052070BDE288216800FB0210BA
:107330002860002070BD2DE9FC470025178806460F
:10734000158090F82D001446894630B13A46214602
:10735000484600F0A5FC051E09D1B0784FF00C0A94
:1073600018B32088C846001DB84202D95046BDE86F
:10737000FC87684679DF0028F9D12088032108F8C6
:10738000001020881921401C80B2208008F80010CD
:107390002088401C80B2208000EB0801BDF800006E
:1073A00009F0CBFE218808442080F0780222C8B181
:1073B000218896F9033001F1030C4846BC45D5D825
:1073C000425421884FF0010C491C89B2218000F8F9
:1073D00001C02188491C89B2218009F80130208828
:1073E000401C20807068B8B1218890F9003001F10C
:1073F000030C4846BC45B9D8425421880A22491C8E
:1074000089B2218042542188491C89B2218009F81F
:1074100001302088401C2080308950B1CDE90047E0
:107420004B460622022106F1080009F065FF051E01
:107430009DD1308A50B1CDE900474B460722032148
:1074400006F1100009F058FF051E90D1308B50B1A5
:10745000CDE900474B461522142106F1180009F02A
:107460004BFF051E83D1306A30B13B462246494668
:1074700001F0D2FA051EDBD1706A30B13B462246DC
:10748000494603F0E7FC051ED2D196F82C0038B12E
:107490003B4622464946304609F086F8051EC7D1CC
:1074A000307838B13B4622464946304603F060FD0D
:1074B000051EBDD128465AE718B504460020ADF890
:1074C000000013466A46204600F006F8002802D065
:1074D000BDF80000204418BD70B5E0B1DAB1002459
:1074E00002E0045D2C44A4B2651C8D4206D21688CD
:1074F000A642F6D8061976789E42F2D18C420AD27C
:10750000A31C005D9BB200B1401E0004000C02D021
:107510001C188C4201D9002070BD138070BD80F80A
:10752000301070472DE9F0410D00044606D02CB113
:1075300095F87A000026012803D006E00E20BDE869
:10754000F08195F89800012829D0D5F8A0000428EA
:1075500025D0D5F89C00042821D04FF00108A67052
:107560002C2205F17801201DFEF780FF84F83060A1
:10757000D5F8A4006063D5F8A800A0634FF6FF70AB
:10758000A4F8240404F58260C4F82004C4F8266436
:10759000A4F82A6484F82C64207810B104E0072051
:1075A000CDE7FF2084F8540004F155072046C4F8C5
:1075B0001074FFF790FBA4F8140404F21442394647
:1075C0002846FFF7B8FE0028B9D104F23120C4F8EC
:1075D00018042046FFF77FFBA4F81C0404F21C42A9
:1075E00005F13C00D4F81814FFF7A5FE0028A6D139
:1075F00084F85180208BA4F8480084F83C802664ED
:1076000084F85060606900216064454604F13C02E2
:10761000781E72DF002892D1257090E710B502889D
:10762000102A1BD0112A20D0262A1DD1007A0C4600
:10763000012801D0022817D1A0780521401CB0FBF9
:10764000F1F201FB1201204600F01DF800280BD0DA
:10765000A16B002908D0BDE810400847C27B012A71
:1076600002D18088A1F8240410BD0C46002184F8C2
:107670002E148088B4F824148842F5D1207900288B
:10768000F2D10121DFE72DE9F05F044600780F46D3
:1076900098B1A7700025C4F82654A4F82A5484F899
:1076A0002C54A079012608B1012F09D0E07980B1CE
:1076B000012F05D0022F03D00BE00820BDE8F09F7A
:1076C000616B21B184F82D640820884701E084F8BB
:1076D0002D5404F2274100200A5C0AB1304603E031
:1076E000401C0628F8D300204FF002084FF0030B8F
:1076F000012F06D0022F0CD0032F0FD0042F15D14D
:1077000010E0A17929B194F8241011B908B13046DC
:107710000DE0E17911B108B1404608E0207A08B1E6
:10772000584604E0607A08B1042000E02846A070C2
:10773000616B41B1032801D0042804D1607910B1F4
:1077400094F82E0498B184F82F5404F13C001821C9
:107750000746FEF7A4FE84F83C6004F12C0006F016
:107760004BFF58B194F82C0084F8510008E084F8DD
:10777000305484F82F6407208847E6E784F8516086
:1077800094F8240058B104F1280006F035FF20B128
:1077900094F8280084F8520001E084F8526084F8DC
:1077A0005050A27804F2264104F582694FF0060A8F
:1077B000052A64D2DFE802F07C030F22420084F83D
:1077C0003160C4F82054C4E9101584F83C8080204E
:1077D000A4F8480055E084F8318094F82420384615
:1077E00012B10722027001E080F800B0228A828183
:1077F000C4F820544160E168B96042E06069B86053
:10780000208BB88194F824003D460028204602D001
:1078100084F83CA001E084F83C6009F049FD50B1D7
:1078200085F814800421204602F07FF838BB05213A
:1078300084F8311021E084F831B01EE0E069B860CE
:10784000208CB88194F824003D460028204602D0C0
:1078500084F83CA001E084F83C6009F029FD48B1BF
:1078600085F814800421204602F05FF838B984F8C6
:1078700031A002E0042084F83100C4F82094A078FC
:1078800078B13A4604F15400D4F8201472DF00288D
:107890007FF414AF94F8301094F8540073DF00288C
:1078A000F6D1616B11B194F831008847002005E7EB
:1078B00084F83150F5E70000F7B594B0174605009D
:1078C0003CD0287C9DF854100024884252D00026D9
:1078D0004FF0010E0D9615A8ADF834E00E90ADF8FE
:1078E0003660E9880DAA4FF6FF70ACDF040026D1A0
:1078F0009DF854002874687CA0B30F9610961196DA
:107900001296E888ADF83C00BDF83600ADF84000AE
:107910000DA811900E981290A7F57F408DF83EE0CB
:10792000FE3805D039460FA8FFF7DCFC044621E0FD
:10793000684600F09DF800256F460FE00E2017B056
:10794000F0BD00BF07EB4506B08800F0F9F802284B
:1079500003D144B10FA9B088AEDF6D1C0098A842D6
:10796000F0D807E005E0B1880FA8FFF7BBFC04469C
:10797000F3E708242046E2E738B50D46040018D0A6
:10798000BDB12868206028796074FF202074012030
:107990008DF8020041F60F00ADF80000221D694687
:1079A0000120A8DF002803D129462046FFF742FC2A
:1079B00038BD0E2038BD38B5002924D0002822D08B
:1079C0000288502A1FD10546487C0C4600281AD050
:1079D000E9886289A81D914215D14189022912D1F5
:1079E000216800290FD00C3000F017FC08B10020EE
:1079F00000E001208DF80000A888ADF802002268A0
:107A000069462046904738BD70B5040012D0014643
:107A10001C221448FEF72AFD1248134D0560206809
:107A200050B17ADF002806D12068016829604068DB
:107A3000686005E00E2070BD0B487BDF0028FAD19E
:107A400008484FF6FF711438084A20F8041B05490E
:107A5000343901600021FFF70DFA0028EBD0032034
:107A600070BD0000643100208C2800204912030002
:107A70000149496800F0B1BF8031002010B50446CB
:107A800000F0B0F808B1204610BD142010BD000071
:107A900010B5044600F0A6F8002805D02146BDE840
:107AA0001040024803F07ABB10BD00009031002066
:107AB00070B515460E46044609F006FC002809D0AC
:107AC000054800EB8400C0692A463146BDE8704095
:107AD00001F058BF70BD00008031002010B5044691
:107AE00000F080F8002805D02146BDE8104002488B
:107AF00003F054BB10BD00009831002010B50446BF
:107B000000F070F8002805D02146BDE8104002487A
:107B100003F044BB10BD00009431002070B5054651
:107B2000002400F05FF838B12946044803F036FB22
:107B300008B1022400E00124204670BD8C310020F1
:107B400070B50546002400F04DF838B129460448C8
:107B500003F024FB08B1022400E00124204670BD9C
:107B60008831002010B51821034803F0F2FA1828D4
:107B700000D0C0B210BD00008031002070B50546B5
:107B80000C46084609F0A0FB60B1284600F02AF830
:107B900040B10548294600EB8400BDE870401C3028
:107BA00003F0FCBA002070BD8031002070B505469E
:107BB00016460C46084609F087FB00280ED02846DA
:107BC00000F010F8002809D00548324600EB840088
:107BD0002946BDE870401C3001F0A2BE70BD000017
:107BE00080310020142801D300207047014601484D
:107BF00003F0D4BA8431002010B558B103684BB1FA
:107C000042683AB1044900200124C8600C70C1E9FF
:107C1000013210BD0E2010BD94280020002827D06E
:107C2000002925D0134A1278002A21D00A4601885B
:107C3000112911D0302907D0322909D0332917D181
:107C4000011D104605F008BE011D104605F0C8BE16
:107C5000011D104605F010BD8088B2F8CA12884296
:107C600006D1002082F8C8024FF6FF70A2F8CA02BF
:107C7000704700009428002048B1084A137843B1A7
:107C8000D26832B190F8C8222AB1112070470E2074
:107C900070470820704701F05DB90000942800206B
:107CA0007CB5054608880C460930904201D90C2065
:107CB0007CBD68466DDF0028FAD121880820685411
:107CC00020881B21401C80B2208029542088401C21
:107CD00080B220802844DDF801100160BDF8051055
:107CE00081802088801D80B220809DF80010490886
:107CF00000D0012129542088401C208000207CBD18
:107D000038B501880446212935D012DC2148224AA1
:107D10001029A0EB02004FEAD0004FF0030202EB63
:107D200000400ED011292FD1BDE838401BA104F02E
:107D300025BB3B2929D0562926D18088132176DFFF
:107D400013E01AA104F01AFB072000F04DFB08B164
:107D5000FFF77EF8A188184803F036FC08B1FFF75A
:107D600077F8A1881548FFF787FF00280CD0BDE8F9
:107D70003840FFF76DB800200090A08869468FDF7B
:107D8000002801D0FFF764F838BD8088132176DF22
:107D9000EBE70000E4360300143603004469736324
:107DA0006F6E6E65637465642E000000436F6E6EC7
:107DB00065637465642E0000042B0020742200208B
:107DC00010B51A4C0188606810290ED011292BD1EA
:107DD000401E606028D1FEF786FF002824D021686D
:107DE000002921D0BDE810400847D0B90021012268
:107DF000084600F0D7FA08B107280FD10722022160
:107E0000012000F0CFFA08B1072807D1042202218F
:107E1000002000F0C7FA20B1072802D0216801B184
:107E200088476068401C606010BD00008428002006
:107E30002DE9F04701883B4E40F2F3194FF6FF75EC
:107E400010291BD011293ED0122954D0502946D1D7
:107E5000C188F289841D914241D1618902293ED1B4
:107E60008688304602F026FC050038D004F10C006C
:107E700000F0D3F9A8B3294630464EE0C17B87888D
:107E8000044601292BD1A846284602F013FC050020
:107E900017D02F8000202872234843464A460168A5
:107EA000C5F80A104068C5F80E0004F1100105F18C
:107EB0000A0002F0C3FC6872F08900280FD129463D
:107EC0002AE0042013E0808802F0F4FB040006D0CE
:107ED0006068FFF721F808B108F00EFA2580BDE8C8
:107EE000F087FFE76868FFF717F80028F7D0BDE8CC
:107EF000F04708F001BA87880646384602F0DAFBF8
:107F00000400ECD02B464A4606F1080104F10A00B1
:107F100002F094FC607221463846BDE8F04700F05C
:107F2000C1BD0000643100208C2800202DE9F04FF5
:107F3000044686880188424897B0834610290CD0B1
:107F4000112950D0103019296AD01A2974D1217AF8
:107F50000C09042C4DD301224CE0394D083DA86892
:107F6000C0430B9069680BA803F03CF90B990CA86F
:107F700000F033FD2C220CA96846FEF777FA0027A3
:107F8000E946A84610E000BF09EB47005FF0000596
:107F9000B0F804A008EB85005146001D03F0BEF8C0
:107FA0006D1C1E2DF6D37F1C0098B842ECD8142E01
:107FB00005D317B00420BDE8F04FFEF749BF3146A6
:107FC000584603F0F6F8314608F1040003F0F1F8E2
:107FD000E07B022830D117B03146BDE8F04F184899
:107FE000001D03F0E6B817B03146BDE8F04F03F0CE
:107FF00095B80022314601F093FC032C01D30122F5
:1080000000E000220E4831460C3001F089FC022CC1
:1080100001D3012200E0002209483146083006E081
:10802000217A002908D1617AC1F3C002314617B024
:10803000BDE8F04F01F074BC17B0BDE8F08F000050
:108040008831002010B504460748007800280AD07F
:10805000204602F05DF9204608F02EFB2046BDE8E0
:10806000104001F019BE10BDD4280020C08A00289D
:1080700000D0012070471FB50088112811D14FF69C
:10808000FF7008810C460846FFF7F0FF002808D073
:1080900002208DF8000022686946204690470020A3
:1080A000E0821FBD7FB500240094019402940394E4
:1080B0004A88ADF802200B7801F10E027BB1022B49
:1080C00001D0012B0AD101218DF80010BDF80C1050
:1080D00009B18DF800400268694690477FBD8B88E2
:1080E000A3F5C055023DF9D18B79012BF6D10023C0
:1080F00016E000BF03EBC30532F81560A6F60626AE
:10810000B6F5005F0BD102EB45052E79760706D553
:108110002E6801966E6802962D89ADF80C505B1C96
:108120000D7A9D42E6D8D1E7FEB50A4601880026C1
:10813000102912D050291AD10546841DC088D18833
:108140001746884213D16089012810D1A98802AA54
:108150003869FFF7CCF870B90AE000968188106999
:108160006A46FFF7C4F8002801D100980670FEBDEA
:108170000299207B08708DF80060A888ADF8020095
:10818000029801903A68694638469047FEBD1CB592
:1081900068B161B1002201230092ADF80030ADF862
:1081A000022001914189408A6A46ADDF1CBD0E2044
:1081B0001CBD38B50246002929D0002A27D01388D3
:1081C0000020102B0FD0112B11D0192B1FD10B46D3
:1081D000117A00291BD18DF800008DF80100694645
:1081E00018461A6817E00B4691885982F3E70C4647
:1081F000117A08290BD18DF8000020460DF10101FC
:10820000FFF7C5FF20B16168002900D0884738BD5D
:10821000226869462046904738BD007800F001008A
:1082200070470A78027049784170022070470288CE
:10823000102A01D180884881704700000149085CFC
:1082400070470000DC18030007490B5C4FF0A041A9
:10825000D1F804250120984020EA0203C1F808352E
:108260001040C1F80C057047D81803000249085C9B
:10827000012103F06BBE0000D81803000249085C1E
:10828000002103F063BE0000D81803000649095C12
:108290004FF0A040D0F80405C84010F0010000D015
:1082A000012080F001007047D818030010B50024A9
:1082B0002046FFF7DBFF641C042CF9D310BD10B57A
:1082C00000242046FFF7DAFF641C042CF9D310BD0C
:1082D00010B50246064B4FF0FF3000215C5C944223
:1082E00001D1084610BD491C0429F7D310BD000078
:1082F000DC18030010B5002000F066F908B106286C
:1083000006D1012000F060F908B1062800D1002054
:1083100010BD00002DE9F0470D468146FFF7D8FF5C
:108320000446042836D2DFF874801B481C4EA8F19E
:108330000C0725B3012D0ED0022D2BD104EB4400E8
:1083400030444578002D25D0B968002922D0284630
:10835000BDE8F047084704EB4401755C0E447178B2
:1083600049B10E4A4FF48041093A8068FEF7BCFDDE
:1083700008B987F80390B17808F80410E2E780683C
:10838000FEF7CAFD04EB4401314418F804008D786F
:10839000A842D7D0BDE8F087E0180300802800206D
:1083A0000031002070B50023042810D20D4D00EBE1
:1083B0004004012A02D101290CD00022094E00EB11
:1083C0004000304461B1012906D0022906D00723BC
:1083D000184670BD0E30C2B22A55F9E74270F7E771
:1083E0008270F5E700310020044A0146002012792E
:1083F000D20702D0084600F003B870477428002066
:108400002DE9F05F6E4C054600266078B34618B142
:1084100084F801B002F06AFA6A4F4FF47A694FF4B7
:10842000C87A4FF00108182D69D2DFE805F00C1367
:1084300013384754696E727B727BC584848484844C
:10844000B3B6B9BCC5C502F051FA3868FEF764FD91
:1084500006465CE00020FFF719FF00284FF00000FF
:1084600008D0FFF703FF022D02D14FF4E16008E0CE
:10847000484606E0FFF702FF022D01D1C82000E0C8
:108480005046410CC0034FF47A72801841F100014C
:10849000257052000023FDF7A5FF01462AE00020C9
:1084A000FFF7F4FE00284FF0000004D0FFF7DEFED7
:1084B0004FF44870E5E7FFF7E1FEDFE70020FFF744
:1084C000E5FE00284FF0000002D0FFF7CFFECFE717
:1084D000FFF7D4FED4E70020FFF7D8FE00284FF0C6
:1084E000000002D0FFF7C2FE01E0FFF7C7FE2570D3
:1084F00040F6CD4100223868FEF7F6FC064646E01D
:108500000020FFF7A1FE257008E0002051E0257053
:108510003DE084F801800120FFF796FE002240F242
:108520006661E8E784F801800120FFF78DFE0022F4
:108530004FF40051DFE77868FEF7EEFC0646D5F110
:10854000110000D02EB10220FFF790FE84F802B097
:108550001DE0012816D980B2C8214843C117C903BC
:1085600041EA5041C0034FF47A72801841F1000192
:1085700052000023FDF736FF014600227868FEF71F
:10858000B3FC06460220FFF779FE84F802803046ED
:10859000BDE8F09F02F0AAF9B9E702F0A7F9B4E745
:1085A00002F0A4F904E002F0A1F90020FFF766FE52
:1085B0000120FFF763FEAAE7FFF781FEA7E70000AF
:1085C00074280020E0180300012108F0FCBE000020
:1085D0002DE9F84F0546861C00208DF800009146D5
:1085E0000F464FF0010A6846FEF79CFC1B4C04F254
:1085F0001C4860683860D4E90101194F401A396895
:10860000081A0EE00121404602F0E6FD02F00EFBE2
:108610000146404602F0E0FDD4E90101401A396804
:10862000081A401C8642EDD8B9F1000F03D005208E
:1086300065F3891002E0062065F39F5061683A688F
:10864000114004EB8101C8606068304460609DF8AF
:108650000000FEF78BFC5046BDE8F88FA0390020E3
:10866000102A002070B50D4604460A2902D10D21BA
:10867000FFF7F8FFA0682268411CA1601554D4E9F7
:108680000101814204D32046BDE8704003F09FB849
:1086900070BD0000044881684068814201D101201A
:1086A0007047002070470000A03900201CB5044628
:1086B00001F052FF00236A46092105F0D7FD052885
:1086C00005D10348012241792046FFF76FFA1CBD0E
:1086D000A42800201CB504460020009042F6A620E5
:1086E000ADF8000001208DF80200084801AA694693
:1086F000006801902046A0DF002805D1044801222F
:1087000081792046FFF752FA1CBD0000881903004A
:10871000A42800200249084490F930007047000066
:108720000C3500202DE9F0438146887891B09046C1
:108730000C4600B901208DF83E002088ADF83C00C1
:1087400000250095607C694607F09EFF6E46A07C80
:10875000711C07F099FFE07B00289DF8020002D011
:1087600040F0080001E020F008008DF80200217CB4
:1087700011B140F0100001E020F010008DF802006F
:10878000217B11B140F0010001E020F001008DF8E3
:108790000200217D09B1022100E0012161F34200C4
:1087A0008DF802001C2102A8FDF779FE607BC1064E
:1087B00001D4800617D50E950EAFE07C791C07F02A
:1087C00063FF9DF83800079720F00F00401C20F051
:1087D000F00010308DF838009DF83A0020F00600C7
:1087E000801C8DF83A00607B8DF80800A07B8DF826
:1087F0000900142109A8FDF752FE0FA8CDE90906CA
:10880000A088ADF83000A06820B1E088ADF82C0059
:10881000A0680D90A06998B301950088ADF810008C
:10882000A06901AD01A94088ADF81200A0694068B7
:1088300006950390A069007B07F026FFA069691CDC
:10884000407B07F021FFA069807A00289DF8060090
:1088500002D040F0080001E020F008008DF806008A
:10886000A169C97A11B140F0100001E020F01000B8
:108870008DF80600A169097A19B140F0010002E003
:108880000DE020F001008DF80600A169897B09B197
:10889000022100E0012161F342008DF80600E06949
:1088A00000B10590434609AA02A94846AADF11B0C3
:1088B000BDE8F08330B589B00D46044620216846F6
:1088C000FDF7EDFD94F8C602002300EB8001C1EB3B
:1088D000801094F8C51204EB400041B1491EC9B2A2
:1088E00001EBC10100EB4101498A491C00E0C1884C
:1088F000008961F30F0360F31F4303208DF800002C
:108900000548CDE90204054804932A466946806873
:1089100002F0DAFD09B030BD058F02009428002076
:1089200070B504464FF6FF750A462846AC4209D199
:108930004FF480742146104602F00BFC80B2A04236
:108940000BD070BDFF2CFCD82146104602F0F1FB85
:1089500090F0010F01D0204670BD284670BD000088
:1089600070B5084C050009D010342168002907D0E3
:1089700008682060496828468847F6E70834F4E725
:1089800070BD0000F8340020054A012120B1012803
:1089900005D19170FFF7E4BF51700020FAE77047EE
:1089A000F834002010B5D0E90234D1E90220D11A00
:1089B000A04101D3012010BD002010BD10B502461A
:1089C0000020138806E0546834F810408C4203D02D
:1089D000401C80B28342F6D810BD73B58CB00646F9
:1089E000002000900D9880B100246D4621460DA80E
:1089F00002F0D4FB30B1009805EB40008480009871
:108A0000401C0090641C142CF0D32C226946304684
:108A1000FDF72CFD0EB070BD2DE9F041178806461C
:108A2000B81D14460D46984202D90C20BDE8F081CD
:108A30003188072206290AD34FF4486C4FF6FF739A
:108A4000614501D9994202D17088062801D21046A9
:108A5000ECE7604501D99842F9D1994203D0984298
:108A600001D08142F3D80520E85520881221401C0E
:108A700080B2208029542088401C80B22080411977
:108A8000308808F05AFB2188084480B220804119C0
:108A9000708808F052FB2188084420800020C5E738
:108AA000FEF7D6B938B54A7A0F4B62B100220A7286
:108AB0005969002906D001228DF80020ADF8020086
:108AC0006846884738BD0A7A62B19B684C6802469E
:108AD00019462046FEF708FA0028F3D0BDE83840D2
:108AE00007F00ABC5B68F1E764310020F0B585B09F
:108AF00016460F4604461D4614220B496846FDF7EC
:108B0000B5FC0A488DF80870ADF80240ADF80A606F
:108B10008DF80C50017800222046FFF747F8684690
:108B200000F0CAFC05B0F0BDEC1A03004429002097
:108B3000FDF7E2BF70B588B00646002005900690AC
:108B4000ADF81410ADF816100190029001AA05A915
:108B5000304690DF050021D004F02EF9034611487D
:108B600011493246401AC108012000EB0140044679
:108B70000E4903F00EFCBDF8042012B9BDF8060042
:108B800028B1BDF80630204609A103F002FCBDF86B
:108B900008201AB12046164903F0F4FB08B0284615
:108BA00070BD0000343603001436030000230300B8
:108BB00054686520726571756573746564205458D6
:108BC0002F5258207061636B6574206C656E6774FA
:108BD0006820697320746F6F206C6F6E67206279F4
:108BE0002025752F2575206F63746574732E000022
:108BF0004C23030001460148FFF754BAD42A002051
:108C000070B504460948012102F001FBBFF35F8FF4
:108C10000025002808D1204601F082FF002803D15A
:108C2000BFF35F8F0148056070BD0000B0280020D1
:108C30002DE9FF410C4620B14FF4064004B0BDE8D9
:108C4000F0812079002748F2096538B141F61D56B8
:108C500001281BD0022826D0681DEFE702202071D2
:108C600002970397E0680190694601A806F07EFE2E
:108C700050B102988188E18000882081BDF8001001
:108C8000029806F0F1FED9E72846D7E70A4B6A4674
:108C90000021A01D06F022FE38B1074918398F6166
:108CA000CF61A842CAD13046C8E7034881880198FD
:108CB00006F0DAFEF5E70000C8290020F0B587B01D
:108CC0000C4607461646142101A8FDF7E8FBA078DC
:108CD00000B901208DF81A002088ADF8180006A808
:108CE0000190A079694607F0CFFC6D46E079691CD8
:108CF00007F0CAFCE07800289DF8020002D040F09E
:108D0000080001E020F008008DF80200217911B17F
:108D100040F0100001E020F010008DF802006179B1
:108D200011B140F0010001E020F001008DF80200D7
:108D3000217A09B1022100E0012161F342008DF89E
:108D4000020002956089ADF80C00A089ADF80E0014
:108D5000E089ADF8100020690590324601A9384637
:108D6000ABDF07B0F0BD00002DE9F04389B00F463E
:108D70000546914620216846FDF791FB95F8C6020D
:108D800095F8C54200EB8001C1EB801005EB400671
:108D900004EBC40006EB40013279601C0A319042BA
:108DA00032D108AB0022284601F06AFD78B310E00A
:108DB000401EA04201D1002004E004EBC40006EBF9
:108DC00040001C308046024608AB284601F058FDA2
:108DD00090B10020387004208DF8000008984A46B1
:108DE000CDE903500C4802900C486946806802F0B7
:108DF0006BFB09B0BDE8F08395F8C5024146401C05
:108E0000641C85F8C502E4B23079A042D0D80120B4
:108E100038700020EDE70000058F02009428002044
:108E200030B59FB00C4605467C216846FDF737FB00
:108E3000ADF8024003208DF8000004480195416818
:108E4000002901D0684688471FB030BD9428002013
:108E50002DE9F041044690F8C602884600EB8001F7
:108E6000C1EB801004EB40061746304606F05EFE6C
:108E7000050042D0D4F8CC0206283ED204EBC01044
:108E80007622A0F8D272D4F8CC02314604EBC0109E
:108E900000F53570FDF7EAFA0026B8F1000F06D0AC
:108EA000D4F8CC0204EBC01080F8D06206E0D4F80D
:108EB000CC12022004EBC11181F8D002D4F8CC020C
:108EC00004EBC010C0F84C53D4F8CC020C4D401C3D
:108ED000C4F8CC02E96888420FD12746002407E095
:108EE00007EBC41101F53470D1F84C138847641CAA
:108EF000E8688442F4D3C7F8CC62BDE8F081000092
:108F000094280020F0B515469FB0002281F8C822B1
:108F1000074691F8C6020C4600EB8002C2EB8010B7
:108F200001EB400006F002FE060009D07C22084951
:108F30006846FDF79BFAADF8025068460197B047C6
:108F40001FB029462046BDE8F040FFF769BF00008A
:108F50000C190300F0B50D4689B004464FF4BA6110
:108F6000FDF79DFA20216846FDF799FA154E29462E
:108F7000B06802F071FA002821D1A4F8CA52C4F8EE
:108F8000CC0284F8C70284F8C60284F8C5020E48F1
:108F900001272A460068206002208DF80000ADF805
:108FA00010702068CDF812000848CDE90204694627
:108FB000B06802F089FA002801D184F8C87209B0BB
:108FC000F0BD000094280020FC310020058F020035
:108FD00010B50021024802F01AF980F3100010BD0C
:108FE000BC3D00204FF480328A400168C1F848231C
:108FF0000068C0F8082370474FF4A07202EB8101AB
:1090000089B200F01CBA2DE9F04105460E464FF436
:10901000A07000EB860081B228684FF48034B44021
:10902000984622F07F47C0F808432868C0F84843B4
:10903000286803F030FC286800EB8600C0F8407513
:109040002868C0F84443B8F1000F02D02868C0F87F
:109050000443BDE8F0810068D0F8040570470000C3
:1090600070B54379234C44F823204279231D03EB48
:10907000C202224C1579204A121BD4082DB10825B2
:10908000022000EB04401EA130E005680A88C5F804
:10909000082590F904208978002A4FEA411104DB61
:1090A00002F1E02282F8001405E002F00F0202F162
:1090B000E02282F8141D90F904100122002909DB36
:1090C00001F01F0502FA05F54909890001F1E021C7
:1090D000C1F800514179002503EBC1010A714179C2
:1090E00043F83100032000EB04400EA103F046F9E1
:1090F000284670BDA4290020C4360300143603009E
:1091000052544320696E7374616E636520616C72A2
:109110006561647920696E697469616C697A6564F6
:109120002E0000005254433A20696E697469616CE4
:10913000697A65642E00000090F90400002809DBBC
:1091400000F01F02012191404009800000F1E02061
:10915000C0F8001270470A46022100F067B94FF4C8
:10916000827100F06CB900680121016070470068ED
:109170000121416070472DE9F05F07460C464FF42E
:10918000A07000EB84001FFA80FA38684FF4803634
:10919000A6409B4622F07F45C0F848633868C0F877
:1091A00008633868D0F8048500EB8402D2F8409553
:1091B000C2F840855146386803F06DFBA9EB080002
:1091C00020F07F40012806D1102003F061FE5146B7
:1091D000386803F060FB3868D0F80485C0F8446351
:1091E000A5EB080121F07F413868012900EB8400DC
:1091F00010D0C0F840553868D0F804156FF07F4C97
:109200006A1A521E22F07F42ACEB0B03934217D333
:1092100062B118E06D1CC0F84055102003F038FE14
:109220003868D0F8040540450AD10CE000EB840012
:109230006D1CC0F840553868D0F80405884202D04B
:109240000D20BDE8F09F01223146384600F0EEF8CF
:109250000020F6E713460A460021FFF747BC00004E
:109260002DE9F843104D0F4680461E46914669464B
:10927000286801F027FF040014D01C21FDF70FF926
:1092800001202071C4F81490380BC4F80080C4E9A0
:1092900002606946286801F036FF06F051FA0020A6
:1092A000BDE8F8830420FBE7E01B030010B503785A
:1092B0000022072B06D2DFE803F005040610202960
:1092C00030000A7010BD01230B7003898B818388E5
:1092D000CB81C06888600A7410BD02220A700289BE
:1092E0008A818288CA81C2688A60807D062802D00D
:1092F0000020087410BD0120FBE703220A70C28819
:109300008A810289CA81C068886010BD04230B70FD
:10931000C0888881CA818A6010BD0520087010BD90
:1093200070B5064D0646002455F8241009B13046A4
:109330008847641C042CF7D370BD000078360020E9
:1093400030B50446006887B00D46806800281FD0FD
:1093500018216846FDF7A3F80195A06805902079CB
:1093600010B1012810D107E001208DF8000020691C
:109370000290E068039005E002208DF80000E068AC
:1093800000030290606904902068816868468847FD
:1093900007B030BDF0B585B017460C0005463AD091
:1093A000112C38D0082C36D01C481D49401AC6084C
:1093B0000D2C11D0204603F0FFFC0246012000EBEB
:1093C00006402B46174902F0E4FF2A46072168466B
:1093D00001F02CFE02941BE0022000EB06402A461E
:1093E000114902F0CFFF2A460321684601F01EFE14
:1093F00027B13878C00701D0012000E002208DF8A5
:10940000080000208DF80C0041F20110ADF80A00B0
:10941000684600F05FF805B0F0BD00006C36030050
:1094200014360300BC2D0300AC2C03000368C3F802
:109430004413002A02D00068C0F80413704710B526
:10944000006842581AB103F026FA012010BD00202E
:1094500010BD000010B50446408801F07DF8A080E2
:10946000024801682046BDE810400847AC280020AB
:1094700010B50446808800F0B9FF6080024801689A
:109480002046BDE810400847BC2800202DE9F041E7
:1094900007460024064E074D05E000BF56F824108D
:1094A00038468847641CE8788442F7DBBDE8F081E1
:1094B000AC340020D428002010B50446408801F0C8
:1094C0004BF8A080024801682046BDE810400847DC
:1094D000AC1A03000149096808470000281B030073
:1094E00070B586B0044614216846FCF7D8FFA08901
:1094F0000125A0F54040ADF8040020782F4E062845
:1095000033D2DFE800F0320303032C4AA08900F0D5
:10951000EBF930B9E08943F6FE71A0F5404088428E
:1095200023D8A07B8DF80800207803280FD00020D6
:109530008DF80900A0680390606850B109208DF88B
:10954000000060680490684604F0E2FD0DE0012030
:10955000EEE708208DF800008DF81050F3E7A089A1
:1095600000F0C2F908B1E08930B17078002801D06C
:1095700004F022FF06B070BD606830B10B208DF89A
:109580000000606802907570DDE70A208DF8000029
:10959000BDF8040004F0B4FFF5E7606848B114209A
:1095A0008DF80000606802904FF6FF70ADF804007F
:1095B000C9E713208DF80000F6E70000C02800205E
:1095C00038B504460F480078B0B1A4F57F40FF38A5
:1095D0000FD0684605F058FF88B1052101700121C0
:1095E0000171C480684605F05DFF06F09BF800201D
:1095F00038BD48F2036038BD48F2016038BD48F21A
:10960000076038BDD02900200D4808B5007888B122
:10961000684605F039FF80B106210170684605F003
:1096200041FF0848017809B10121017306F07AF879
:10963000002008BD48F2016008BD48F2076008BD7F
:10964000D02900203C370020F0B587B014216846AF
:10965000FCF725FF304C207818B16846FFF760FE14
:1096600057E0201D01F0B5FD98BB40F6F870016889
:10967000481C02D14FF0102041694FF08050026920
:1096800040694B1C01D100FB02F12448002201611A
:10969000A1F54051C160224902F02EFA002823D1E1
:1096A00021481C238C221F49006801F0F8FC04F0BB
:1096B000BBFA050016D0022D14D000270126062D76
:1096C00014D005A805F0E0FE98B106700C2D1BD251
:1096D00000E01EE0DFE805F0181018101817181742
:1096E0001812141248F20A6007B0F0BD26706760C5
:1096F000B3E748F20760F7E7077105E0032100E0F0
:109700000221017100E0067105A805F0CBFE06F00C
:1097100009F80020E8E70000D02900206C2A00208A
:10972000F01B030088360020581B030038B50400E6
:1097300014D0694606F01AF9B0B1BDF8000000EB8C
:1097400080010B4800EB8100C16851B1A17A41B1A1
:10975000C168491EC1600020A07238BD48F2046093
:1097600038BD48F2056038BD48F2096038BD0000D8
:10977000143700201FB501A9684606F0AFF804B001
:1097800010BD07B513460A466946002006F0A6F844
:109790000EBD07B513460A460021684606F09EF83E
:1097A0000EBD20B119B1006808600020704748F272
:1097B00004607047F8B50D46040018D0BDB1694685
:1097C00006F0D4F8B0B1BDF800000C4900EB800001
:1097D00001EB800001210C30666801F0FDFC2E6079
:1097E00060680C3068600120A0720020F8BD48F26B
:1097F0000460F8BD48F20960F8BD0000143700208D
:1098000018B10323002207F021BF48F2046070471B
:109810000223002207F01ABF094910B50A69042A79
:109820000AD0084A096942F8210005480121103090
:1098300001F0D2FC002010BD48F20B6010BD00000A
:10984000B0290020783600202DE9F84F044624483E
:109850000078D8B1F4B112212046FCF720FE032095
:10986000DFF880902080002504F1100804F10E0A32
:1098700005EB850109EB810630897189084487B2BF
:10988000706804F05BF9032807D009E048F2016032
:10989000BDE8F88F48F20460FAE72088401E208077
:1098A0006088F168084460802089718908442081BB
:1098B000608938446081C7F58060A18980B28142A7
:1098C00000D2A0815346A21D211D2846CDF800805C
:1098D00006F0E8F86D1CADB2022DC9D30020D7E721
:1098E000D02900201437002043F6FE71A0F5404037
:1098F000884201D8012070470020704710B5044607
:109900000078182802D1FEF72DF9207010BD10B58F
:1099100004460078182802D1FEF724F9207010BD03
:109920000AB101F046BC01F0F9BB70B50D46044622
:10993000B0F81414D0F810040122FDF7BDFD00B1F9
:10994000057004F13C0204F5826104F1540072DFF9
:1099500070BD000070B5134600220546112900D1E4
:109960000122074C33B12179FEF720F900226178FA
:10997000284600E06178BDE87040FEF717B90000A6
:109980004C290020F7B517460E0011D0009800258D
:1099900060B100242146684601F000FC18B1A0B275
:1099A0003946B0476D1C641C142CF3D32846FEBD09
:1099B0000020FEBD406805F013BE00000EB516A1E4
:1099C0009DF8080020F00F00401C20F0F00010303F
:1099D0008DF808000C2202A87CDF08B1FDF738FAE8
:1099E0004FF4107078DF08B1FDF732FA00204FF421
:1099F000C87100900190ADF80400ADF800104A0065
:109A0000ADF80220ADF8061068467ADF002801D0D4
:109A1000FDF71EFA0EBD00004E6F726469635F7A37
:109A200068616E670000000070B50D4601F110041A
:109A3000C98A102901D9092070BD02F0B8FD6860FB
:109A400030B1E2880023A16802F017FE002070BD4B
:109A5000042070BD70B50D4601F1100489690988B4
:109A6000102901D9092070BD891C02F0A0FD686091
:109A700068B100230222A16802F0FFFDA068E1683E
:109A800002230288686802F0F8FD002070BD0420FF
:109A900070BD000070B510B14FF4064070BD1C4C95
:109AA0000025207B08B1257301E000F0A5F820789F
:109AB00008282AD2DFE800F02904080C1029142213
:109AC000BDE8704000F026B8BDE8704000F082B8F4
:109AD000BDE8704000F064B8BDE8704000F040B8E8
:109AE0000620207060880A4900EB8000283901EBCD
:109AF00080004068BDE8704004F076B80720207010
:109B00006560BDE8704004F07DB848F20E6070BD3D
:109B10003C3700201149F0B48A1C00200346A1F113
:109B200028050C18A67A4EB1A37200EB800405EB51
:109B30008404E66816B9247C012C0AD0401C80B24B
:109B40000228EED30B704B804B60F0BC41F61D50E9
:109B500070471080F0BC00F03DB800003C3700209A
:109B60000C48418801EB8102A0F1280101EB820140
:109B7000CA6852B10521017007480221818001683D
:109B800000230122054801F01BBF0422027049682E
:109B9000F6E700003C370020D82900206C2A00207E
:109BA00038B50A49084803240B684268898803EBE2
:109BB000810153880470DB1C00201B0400909B0B68
:109BC000034802F051F838BD3C370020D829002066
:109BD0006C2A0020074910B54888091D05F016FFBA
:109BE00018B1BDE81040FFF7DBBFBDE81040FFF73C
:109BF000B7BF00003C37002070B5194C0121207818
:109C000008281AD2DFE800F00419191C25292918A0
:109C10002089134A401C2081002060802073283A4C
:109C200000EB800312F8233043B100232518401CB9
:109C300080B2AB720228F3D3217070BD0123F5E727
:109C40006068084940888A88C01C104488800220C7
:109C500004E000F009F8062000E00720207070BD45
:109C60003C370020D82900200A4909484988026861
:109C700001EB81030749283901EB83014B6803603D
:109C80004A6082880A81022282800020087470471C
:109C9000D82900203C3700202DE9F0430646808873
:109CA0003288DFF85C8185B00746502A37D010DC57
:109CB0005449554B06F10A05A1EB03014FEAD101C6
:109CC0004FF0020303EB0144352A3AD0362A07D17C
:109CD00068E0522A02D0542AF9D102E000F0C4FE12
:109CE00082E0142249496846FCF7C0FBADF80270D7
:109CF000384600F031FCADF8040000F0ABF900226A
:109D0000444698F804103846FDF750FF0022E178E9
:109D10003846FDF74BFF6846FFF79CFB64E0307B5D
:109D2000012861D1B07A01285ED13089A0F5245193
:109D3000023959D10121384600F0EAFE07F06CFAE9
:109D400052E098F80610FDF719FF00284CD00022C9
:109D500098F806103846FDF729FFF288B2F5857F9E
:109D600017D012B120462AA10BE02A88012A03D07D
:109D7000204636A102F006FB6A88012A04D020465C
:109D800041A102F0FFFA04E0A98800223846A1DFD1
:109D900008B1002125E0012298F807103846FDF7A8
:109DA00005FF21E04FF0000998F80710FDF7E6FEE7
:109DB000D0B1002298F807103846FDF7F7FEF28878
:109DC00012B1204612A104E0AA88012A04D020463C
:109DD0002DA102F0D7FA03E0A87900B10120814655
:109DE0004946384606F048FF0022364998F80200F6
:109DF000FDF75EFE05B0BDE8F04306F0CDBA000009
:109E0000A42800201C36030014360300E0190300C8
:109E1000556E6578706563746564204741545420BD
:109E2000737461747573207768696C6520676574F5
:109E300074696E67204341522063686172207661C5
:109E40006C75653A20307825780000004D756C748B
:109E500069706C652028256429204341522063687D
:109E60006172616374657269737469637320666F8C
:109E7000756E642C207573696E6720746865206642
:109E8000697273742E000000556E65787065637496
:109E90006564204341522063686172616374657236
:109EA00069737469632076616C7565206C656E6793
:109EB000746820282564292C2073746F7265203003
:109EC0002E000000B170020070B504460078002832
:109ED00014D1608800F0C8FD6588284600F07CF940
:109EE00028B107480122C1782846FDF75FFE608847
:109EF000FEF7DCFBBDE8704007F08EB970BD0000D6
:109F0000A428002070B5204C00252570FDF72AFEFE
:109F10006070FDF727FEA070FDF724FEE070FDF7EE
:109F200021FE2071FDF71EFE6071FDF71BFEA07182
:109F3000FDF718FEE07162780121182A18D0A27886
:109F4000182A15D0E278182A12D02279182A0FD0B0
:109F50006279182A0CD0A279182A09D0182807D0BB
:109F600004F10C000560BFF35F8F2170002070BD0D
:109F70000648074A801AC00801EB0040054902F074
:109F8000FDF9032070BD0000A42800201C3603004A
:109F900014360300C01F03007CB50446007808286F
:109FA00037D1607A58BB207A1C4E4FF6FF750128D6
:109FB00011D0072802D008282BD121E0A08800F07A
:109FC00015FA0446A84224D0012100F0A1FD204644
:109FD000FEF76CFB1DE0A0886A46012103F0BAFF82
:109FE00068B90198007850B1A08800F0FFF9A84244
:109FF0000FD00122F178FDF7D9FD06F0CDF908E088
:10A00000F068012805D1BFF35F8F044900200C31AF
:10A010000860BDE87C4007F0FFB80000A4280020DD
:10A0200010B50B48FFF717F8094A083AD2E904348B
:10A03000C018D2E9063244F10001C31A71EB0202E2
:10A0400004D24FF08072801841F1000110BD000071
:10A05000882900201CB5054AD2E90212CDE9001278
:10A060000022694604F03CF91CBD0000F819030009
:10A0700003484FF6FF718180012101700020704775
:10A08000B42800202DE9FC41804600F065FA002448
:10A0900003250127A0F57F412646FF3908D06A46EF
:10A0A000082103F057FF18B90198841D86880568B8
:10A0B00032462B4621464046B1DF042804D008280A
:10A0C00004D00B2808D002E0112000E00020002F6F
:10A0D00000D10B20BDE8FC810027A80701D5012590
:10A0E000E6E7344303D0002426460325E0E706488C
:10A0F00006494246401AC008012101EB00400449CC
:10A1000002F040F9E5E700002436030014360300AE
:10A11000882203002DE9FC41804600F01DFAA0F5DD
:10A120007F410646FF390ED001252A466D1C0027C7
:10A13000ADB26B460821304603F056FF040006D04E
:10A14000072C33D033E043F20200BDE8FC810199D3
:10A1500003230A1D0B604046891DB2DF040004D0B2
:10A160000C2C09D0052C09D009E0324608211046F4
:10A1700003F0B2FF04461AE0012700E000240821A2
:10A18000304603F09FFF70B102F016FE0346094807
:10A1900009493246401AC008012101EB0040074935
:10A1A00002F0F7F80324002FBFD100E00C24204672
:10A1B000CBE7000024360300143603000822030016
:10A1C00004488088A0F57F41FF3901D006F0EEB841
:10A1D00070470000B42800200EB502A9019100F0DC
:10A1E000BBF96A46012103F0B5FE08B100200EBD9F
:10A1F000019800780EBD00002DE9F04107464FF6AA
:10A20000FF761048B3DF78B102F0D6FD02460E4863
:10A210000E49401AC008012101EB00400C4902F030
:10A22000B1F80320BDE8F081064C43F20305A41EFB
:10A23000324661883846AFDFA842F3D16088401CBF
:10A240006080F5E7B62800202436030014360300AA
:10A25000BC210300428800EB82020C328A4201D901
:10A26000022070478188A1F57F42FF3A06D001881D
:10A2700021B18068401C01D0002070470120704748
:10A28000884204D20068401C01D0012070470020A1
:10A2900070473EB5027802230C46B3EB520F17D13C
:10A2A000B0F80110ADF80010C1788DF80210818867
:10A2B000ADF8041080798DF8060002AA01A92046A5
:10A2C000FCF754FD032202A96846FCF7FAF808B12E
:10A2D00000203EBD01203EBD70B50D460446142849
:10A2E00010D2FDF77FFC68B1084904EB840001EB54
:10A2F0004000D0F802102960C188A980007AA871B6
:10A30000002070BD43F2020070BD00001432002036
:10A3100070B5018890B0102961D1011D2C226846CA
:10A32000FCF7A4F89DF804004FF6FF7603213446AD
:10A33000B1EB500F2BD003F091FF9DF804006D4658
:10A3400040080ED001280CD0022820D118E00D9929
:10A35000281D1131FCF79AFC18B100BFBDF82C4044
:10A3600015E00CAA0BA9072003F04CFF0028EED142
:10A370000DE00D99281D491CFFF78BFF0028EDD13A
:10A380000CAA0BA9072003F03DFF0028F1D1BDF86E
:10A390000000B44200EB8001124820F8114000EBAD
:10A3A00041000199C0F80210BDF80810C1809DF865
:10A3B0000A10017213D0BDF80000ADF82E00002085
:10A3C000ADF83040084E8DF82C000BAD044600BFB0
:10A3D00056F8241028468847641C022CF8D310B085
:10A3E00070BD0000143200200C1A03002DE9F0416A
:10A3F0004FF6FF760546B04213D00B4F002400BF46
:10A4000004EB840037F81000A84206D12046FDF77F
:10A41000E9FB10B12046BDE8F081641CA4B2142C05
:10A42000EED33046F7E70000143200203EB50C466C
:10A43000054603F013FF0BE0BDF80000A04207D073
:10A440002846029900F00EF810B1BDF800003EBD9C
:10A4500001AA6946072003F0D5FE0028ECD14FF68B
:10A46000FF703EBD2DE9F0410C46054600F1110795
:10A4700001F111061022491C401CFCF722F848B9D2
:10A48000681C00F023FA28B1601C00F01FFA08B124
:10A49000012400E0002431463846FCF7F7FB3B7806
:10A4A0000222B2EB530F0CD00321B1EB530F08D0B3
:10A4B0003378B2EB530F04D0B1EB530F01D001212D
:10A4C00000E00021084201D18C4302D00120BDE808
:10A4D000F0810020FBE7018811B9421892780AB197
:10A4E00001207047491C0829F7D30020704710B598
:10A4F0000C460346FFF7EFFF00280AD01888218892
:10A50000884205D10822A11C981CFBF7DAFF08B18C
:10A51000002010BD012010BD142804D2024A00EB17
:10A52000800022F8101070471432002070B50546E4
:10A53000FFF75CFF0446284603F010FD002808D111
:10A54000142C06D2034B04EB84024FF6FF7123F860
:10A55000121070BD1432002010B50446142808D221
:10A56000FDF740FB28B1044904EB840031F81000EA
:10A5700010BD4FF6FF7010BD143200203EB50446EA
:10A5800003F06CFE0EE0019920464631FFF7AFFF65
:10A5900028B9019920462A31FFF7A9FF10B1BDF86B
:10A5A00008003EBD6A4602A9072003F02BFE0028E2
:10A5B000E9D14FF6FF703EBD10B50A4941600A4827
:10A5C00000F007FE58B902F057FB07491C238C2204
:10A5D000087404488C39001F006800F060FD0020FA
:10A5E00010BD0000E41B0300E83700202DE9F04116
:10A5F0002D4F002520B17D604FF40640BDE8F0816D
:10A600000879012258B1294E01280CD0264C4FF070
:10A6100002080834022820D0032841D127E00A711B
:10A6200003F0F0FA3AE0002000EB800116F8211068
:10A63000022908D0401C80B20228F5D33A707D6010
:10A6400041F61D50DAE700EB800006F8205006EBDB
:10A650008000406803F0C8FA20E00D71A4F804807F
:10A66000002301221248216801F0AAF916E00D71B9
:10A67000206803F0B9FA0D4923682831498801EBB5
:10A68000810206EB8201D1F804C0C4F800C04B601F
:10A69000A3880B81A4F8048006F822500028ADD0CE
:10A6A0007D6048F20D60A9E7D02900201437002012
:10A6B0006C2A00200146034802888A4200D000200C
:10A6C00070470000503100202DE9FC5F0E008346EA
:10A6D000DDE90C47C6F1000098469246814600D459
:10A6E0000846012503E000BF90FBFAF06D1C5045C1
:10A6F000FADAA84500D9454624B1002E01DB7807D7
:10A7000000D5641EB80702D5B8F1000F0AD0F807CB
:10A7100008D13CB1A54205D220215846641EFDF760
:10A72000A1FFF6E7002E02DA4E462D2102E078075F
:10A7300003D52B215846FDF795FF07F003000228AB
:10A740000BD1B8F1000F08D13CB1A54205D23021A0
:10A750005846641EFDF786FFF6E7CDE900474346FD
:10A7600052463146584606F0FDFCBDE8FC9F00000D
:10A7700070B50D46044600684FF4887102F03CFB4A
:10A780004FF49071206802F037FB4FF4927120680B
:10A7900002F032FB4FF4A271206802F02DFB4FF45F
:10A7A000AC71206802F028FB20681249C0F804133D
:10A7B0002068690740F30730090E002804DB00F128
:10A7C000E02080F8001405E000F00F0000F1E02028
:10A7D00080F8141D206840F30730002809DB00F0E2
:10A7E0001F02012191404009800000F1E020C0F8E3
:10A7F000001170BD1003420002460020126853078A
:10A8000013D502F00300012802D002280CD105E084
:10A81000C2F383100B68801C184404E0022308680C
:10A8200003EB925210440860012070470248007AFE
:10A83000002800D001207047E8370020F0B5848858
:10A84000A518944200D82246A41AC288D6189A4263
:10A8500000D81346D21A4B880788BB420CD34088D5
:10A86000834209D88888A04206D3A84204D8C88861
:10A87000904201D3B04201D90020F0BD0120F0BDCB
:10A8800010B509892AB1D088491C814218D100200D
:10A8900010BD90F8C62202EB8204C4EB821200EBDA
:10A8A000420212899142F2D0491C198090F8C612D6
:10A8B00001EB8102C2EB811100EB4100008902E053
:10A8C0001980D088401E5880012010BD0021425CB4
:10A8D0000AB101207047491C1029F8D300207047A5
:10A8E000800701D000207047012070470A4810B54A
:10A8F000807860B1002401E0022C06D02046FDF7EC
:10A90000B5FC641C042CF7D310BD0324F6E7BDE8A6
:10A910001040FDF7CBBC00007428002017210180F7
:10A9200041800021017141711B218171C17170470A
:10A930002DE9FE4F2E4F984692460D00814601D0DC
:10A9400000260DE0684600F067FB6A460021484695
:10A9500003F05CFA3878009E10B99DF8090098B1B0
:10A9600052463146484606F055F804460146002254
:10A970004846FEF7EFFF0D2C37D008DCA4B3082CB7
:10A9800033D00B2C09D130E00520BDE8FE8F112C0F
:10A990001ED0A4F54050023827D0204602F00CFA11
:10A9A0000246144814494B46401AC008012101EBE5
:10A9B0000040124901F0EDFC5FF00305B8F1000F13
:10A9C00004D0324621464846FEF7E4FC2846DCE740
:10A9D0002A46F9784846FDF7E9F85246B9784846DC
:10A9E000FDF7E4F80025E9E7FFE72546E6E7000084
:10A9F0004C2900206C36030014360300642D03003C
:10AA000070B50E460C49154604460978FDF7B6F8B0
:10AA100000280FD0204603F09FF900282A4631462F
:10AA2000204603D0BDE8704003F09CB9BDE87040FB
:10AA3000FEF710BC70BD00004429002070B5094D20
:10AA40000646A978FDF79AF80446E9783046FDF7FE
:10AA500095F8014622463046BDE870400123FFF7D5
:10AA600067BF00004C290020F0B585B005460027DF
:10AA700014216846FBF713FDA5F57F40ADF80250A1
:10AA8000FF3825D02846FFF7FDFA040022D01B48E6
:10AA90001B49401AC6080B2C22D0112C1ED0A4F53D
:10AAA000405002380ED0204602F086F902460120BE
:10AAB00000EB06402B46134901F06BFC214628466B
:10AAC00005F022FC10483A4681782846FDF76EF8DA
:10AAD00005B0F0BD0E208DF800000BE00127F1E776
:10AAE0000F208DF80000022000EB06402A4607499F
:10AAF00001F048FC6846FEF7ADFCE3E71C360300B6
:10AB00001436030090200300A4280020E420030052
:10AB10000A4602494978FDF749B80000A4280020F8
:10AB20002DE9F041002786B080463E46FFF7F2FA55
:10AB3000040022D0112C22D01B481C49401AC50801
:10AB4000862C1ED0A4F5405002380ED0204602F0CC
:10AB500033F90246012000EB0540434614A101F001
:10AB600018FC2146404605F0CFFB39464046FFF72A
:10AB7000CFFF06B03046BDE8F0810126F5E701279A
:10AB8000F3E714221A496846FBF770FC0220ADF87F
:10AB9000028000EB0540424616A101F0F3FB684637
:10ABA000FEF758FCE1E700001C36030014360300F2
:10ABB0006773636D5F6C6F63616C5F64625F636139
:10ABC0006368655F757064617465282920726574B7
:10ABD00075726E656420257320666F7220636F6ED8
:10ABE0006E5F68616E646C653A2025640000000049
:10ABF000B8190300466C6173682066756C6C2E2072
:10AC0000436F756C64206E6F742073746F7265206F
:10AC10006461746120666F7220636F6E6E5F68613D
:10AC20006E646C653A202564000000002DE9FF4148
:10AC30000026244800F0CAFA2248001F074600F008
:10AC4000C5FA214C2149A06800900D6800E00098E9
:10AC50006946284004EB80000C30FFF7CDFD00284A
:10AC6000F5D101AA009901EA050304EB8303491C0D
:10AC7000DB6842F82030401C00910228F2D3019892
:10AC800000F0030001280BD0022810D10198032105
:10AC900001EB90500099BDF80A6001EB900005E0CF
:10ACA0000198BDF80A60C0F383100844009038464C
:10ACB00000F089FA08B10098A06004B03046BDE801
:10ACC000F0810000B83D0020A0390020102A0020AB
:10ACD000ACB04FF48041002001F0CEFB08B1FCF78E
:10ACE000B7F801F021FAFCF7D1F808B1FCF7B0F899
:10ACF000474A01214748FCF7BDF808B1FCF7A8F81E
:10AD000001F0C4FC08B1FCF7A3F801F069FF08B139
:10AD1000FCF79EF8002469460120009401F0F0FD44
:10AD200008B1FCF795F8684601F06AFE08B1FCF737
:10AD30008FF8FBF77FFFFEF741FE0021364800F059
:10AD4000D1FA08B1FCF784F8AC216846FBF7A7FB01
:10AD5000022001258DF800008DF8025005208DF8A5
:10AD600003002E480590ADF810502820229044F2A0
:10AD7000506023908DF87C502948299026486946D8
:10AD80002030FCF7CFFB08B1FCF762F82248012124
:10AD90002030FCF7C4FB234800902348019068460C
:10ADA000FCF72AFF08B1FCF753F805F041FC1C2121
:10ADB0006846FBF774FB4FF4A030CDE900404FF438
:10ADC000F020032702908DF80C701848ADF80E4063
:10ADD0008DF81050CDE905406846FCF715FE08B126
:10ADE000FCF736F803F0D2FB11481249401AC008AC
:10ADF00007EB004010A101F0C1FA3046FBF78EFFCF
:10AE000001F0A0F90028FBD101F054FCF8E70000A4
:10AE1000D1720200B0180300F02A00206C2200203A
:10AE2000DDD50200F58B020044280020A18A020033
:10AE3000E43603001436030050726F78696D69744C
:10AE400079206578616D706C6520737461727465CA
:10AE5000642E000070B5144682880E460546208890
:10AE6000111D0144921C994201D8FE2A01D90C20DF
:10AE700070BD521C32542088FF21401C80B22080BB
:10AE800031542088401C80B220808119288806F027
:10AE900054F92188084480B22080AA8842B1A96868
:10AEA00041B13044FBF7E2FA2088A98808442080A9
:10AEB000002070BD072070BD2DE9F047C5881E1D1C
:10AEC000B6FBF5F78946B6FBF5F1044605FB176CB2
:10AED000407916686843DDF820A0F718001F874204
:10AEE00000D9C61A166001E02468491E0029FBD16A
:10AEF000A5EB0C078846B74216D818E004EB0C0007
:10AF0000001D09EB0803BAF1000F3A4602D00146D2
:10AF1000184600E01946FBF7A9FA2468F61B4FF023
:10AF2000000CB844B54201D9374600E02F46002E48
:10AF3000E4D1BDE8F087000030B5024651B101F020
:10AF4000AFFA0021074C08E034F821301568AB4215
:10AF500002D11160002030BD491C8142F4D305208C
:10AF600030BD000000000000BFF35F8F00F016B995
:10AF7000F8B50F46017814460546012901D16878D5
:10AF800030B12088821C9A4232D8012902D006E0D2
:10AF90000720F8BD69780144891C994228D8181AFD
:10AFA000801E86B2ADF800602188B81C084469464E
:10AFB0007DDF0028EDD12978022904D06878BDF81A
:10AFC0000020904205D3BDF80000B04201D809200E
:10AFD0000AE00820012905D16978B14202D8ADF80C
:10AFE000001001E0ADF80060BDF80010FE2901D9A5
:10AFF0000C20F8BD2288491CB9542188491C89B20B
:10B00000218078542088401C2080BDF8001008441E
:10B0100020800020F8BD0000034A00219268C0E9AA
:10B0200000218160704700004C29002070B586B077
:10B030000D460646144614216846FBF730FA8DF893
:10B040000050ADF802402046FFF786FAADF8040044
:10B05000142269463046FBF709FA06B070BD70B598
:10B060004FF6FF750E46A84201D1002000E0401CBB
:10B0700084B208E02146304600F090F808B120463E
:10B0800070BD641CA4B2FF2CF4D9284670BD10B565
:10B09000FBF70BF908B1002010BD112010BD10B551
:10B0A00031B1B2FBF3F403FB14241CB1092010BD31
:10B0B0000E2010BD01600021416081608281C3814A
:10B0C000084610BD70B50C460546FBF7A3F80028EE
:10B0D00002D021882868084470BD10B50A884988C4
:10B0E0008A4203D1FBF7D8F8012010BD002010BD23
:10B0F00070B50C460546FBF7B2F8002802D061880F
:10B100002868084470BD10B50A8849888A4203D16E
:10B11000FBF79CF8012010BD002010BD01F01F03BB
:10B1200001229A40D243490900EB8100114600F008
:10B1300059B80A4601F01F030121994010B5520980
:10B140000C4600EB820000F05DF8204000D00120AA
:10B1500010BD2DE9F04180460D460024481E012116
:10B1600001EB501716E058F82400C04390FAA0F005
:10B17000B0FA80F020280CD200EB4416AE4208D280
:10B1800031464046FFF7D5FF0028ECD13046BDE8F8
:10B19000F081641CA742E6D82846F8E74A0950F82F
:10B1A000220001F01F0201219140084000D001203F
:10B1B000704701F01F0301229A40490900EB81000A
:10B1C000114600F029B8002100F017B8012100F065
:10B1D00023B8012100F016B808B56A46FBF7B1F8AC
:10B1E000009808BD08B56A46FBF791F8009808BDBD
:10B1F00008B56A46FBF7A5F808BD08B56A46FBF72F
:10B2000086F808BD08B56A46FBF774F808BD08B5AE
:10B210006A46FBF763F808BD08B56A46FBF76AF8AB
:10B22000009808BD08B56A46FBF798F8009808BD75
:10B2300038B5044600258DF800506846FBF772FECD
:10B2400021686268086890420ED9401E0860017843
:10B25000238AE26801FB0325227A2168101AC0B212
:10B260000A79824200D208719DF80000FBF77EFE49
:10B27000284638BD38B5054600208DF800000C463C
:10B280006846FBF74FFEE868298A201AB0FBF1F107
:10B290002A681068431C136001709DF80000FBF7DA
:10B2A00065FE38BD10B530B1017A42680368891A6D
:10B2B000C9B21A6006E00E2010BD03681A68541C5B
:10B2C0001C601170491EC9B2F7D2006800210171DB
:10B2D000084610BDC20800F007030120895C9840B1
:10B2E0000840704710B560B10161172120F8021BBA
:10B2F00020F8021B1B2100F8021BFFF70FFB0020A8
:10B3000010BD0E2010BD0000F0B5858893B00C462E
:10B31000002D39D1018800263F4F24293BD006DC7F
:10B32000102909D011290CD0232958D14FE03A29EE
:10B330000BD0552953D129E00146204602F038FAB6
:10B340004DE0A01DFFF7EAFA49E02246408934F8B3
:10B35000061F814200D808466080172800D21720B7
:10B360006080106970B1607960B1D7E90001CDE902
:10B370000301ADF80E506088ADF81000136903A901
:10B38000104698476671267113B0F0BD01462046FD
:10B3900002F0D0FA23E0011D2C2206A8FBF766F884
:10B3A000BDF81800BDF81C2004EBC0014A732269E7
:10B3B000AAB1D7E90423CDE90423ADF81200487BF4
:10B3C0008DF814002269204604A9904707E0017A0D
:10B3D000207B884200D201462846FDF7ABFBA07ACD
:10B3E0000028D1D0E1882846A5DF012580B11128A9
:10B3F000CAD001F0E1FC02460848094913B0401ADE
:10B40000C00805EB0040BDE8F04006A100F0BABF5F
:10B41000A672E572B8E70000141A03003436030080
:10B420001436030073645F626C655F6761747463F4
:10B430005F65786368616E67655F6D74755F72657F
:10B44000717565737428292072657475726E6564F0
:10B450002025732E000000002DE9F0410F46040066
:10B460004FF000050DD004F089F939462046FDF76C
:10B47000A5FA218881421ED1002005464FF6FF76AD
:10B4800009E00E20BDE8F081626832F81020B24277
:10B4900006D1401C80B28142F6D8206901F0D4F870
:10B4A000002021880BE0626832F81020B24204D1FB
:10B4B000616821F810702846E4E7401C80B28142A0
:10B4C000F1D80420DEE700002DE9F04791460D4653
:10B4D00004004FF0000742D0EDB304F04FF94946A5
:10B4E0002046FDF76BFA2978062902D2218881428D
:10B4F00002D10720BDE8F087A16800EB800601EBD0
:10B50000860001F040F930B14946284604F056FB68
:10B5100008B13846EEE72978DFF8488058F821204E
:10B520002AB12069B8B1294690470028E2D1A06825
:10B53000294600EB860001F045F9070006D029787E
:10B5400058F8210010B1686801F061F8A068494618
:10B5500000EB860000E002E003F0B6FFD9E70E2022
:10B56000C8E700002C1A0300F8B505000C4620D0EF
:10B57000002C1ED02888112806D0A0F130011F29E8
:10B5800002D950381F2814D8AE8820463146FDF71E
:10B5900015FAADF80000218881420AD029881129C6
:10B5A00008D0A16800EB800001EB8000314603F079
:10B5B0008BFFF8BD62684FF6FF7122F810106946E4
:10B5C000E06801F0FFF8F8BD20B10278DE2A03D070
:10B5D000082070470E20704741800020704760B1FE
:10B5E00059B10278DE2A0AD009684160DE21017073
:10B5F0004FF6FF714180002070470E2070470820F1
:10B6000070477FB5054600294DD0002D4BD00878F6
:10B610000C46DE2847D1A8886188884202D120469E
:10B6200005F058FE2888012825D002283BD0112893
:10B630003AD0512837D135F8040F6188884232D189
:10B64000A978A81C02292ED1017A042903D0062941
:10B6500001D0052927D10021009102228DF8002078
:10B6600001914FF4C07202910391ADF80420007A69
:10B6700005280FD010E0297A2046012913D1A98886
:10B68000428891420FD10121017204B0BDE870409F
:10B6900005F020BEADF8041028886946B0DF002808
:10B6A00001D0616888477FBDA88861888842FAD147
:10B6B0004FF6FF7060807FBD00F180400068002879
:10B6C00000D00120704708B500F1804000210160E2
:10B6D0000068009008BD000070B50D4C0125207871
:10B6E00008B185260EE00020A06060602061E06067
:10B6F000084801F0A5FB064601F0BEFA08B901F0C2
:10B7000089FB257001F07EFB00B1A570304670BD4D
:10B71000F83400208989020038B500258DF80050E2
:10B720006846FBF7FFFB084CE068401EE060E068FD
:10B7300028B901F067FB10B901F092FBA5709DF8E4
:10B740000000FBF713FC38BDF8340020F0B50546C7
:10B750000478154889B0164640F82420124A086932
:10B76000121DA2F1080742F82400487F3855202214
:10B770006846FAF77BFE04942878385C48B10EB12D
:10B780000A4A00E000226946281D01F0FDFD09B0CB
:10B79000F0BD0EB1064A00E00022694605F10C003A
:10B7A00001F0BCFCF3E7000068290020F90F03005A
:10B7B000410E03000FB408B50399002904D004AA70
:10B7C00000926A4600F00FF801B05DF814FB10B566
:10B7D00082680446002A05D0D4E90403216898470A
:10B7E0000020A06010BD2DE9FC4791460C0080466A
:10B7F00076D014F8011B39B125290ED04046FCF74C
:10B8000031FF20780028F4D198F80C00002867D088
:10B810004046BDE8FC47FFF7DABF0020012221784F
:10B820002B291BD02D2902D0302908D102E040F06D
:10B83000010001E040F00200641C002AEFD1002565
:10B840002A290ED02178A1F130020A2A11D205EB63
:10B85000850201EB4205641C303DF1E740F0040035
:10B86000EAE7D9F800100B1DC9F800300968641C1C
:10B870000D44217800232E290BD114F8011FA1F1CA
:10B8800030020A2A05D203EB830201EB4203303B6C
:10B89000F3E76C290DD068290BD0692921D00BDC86
:10B8A000252918D0582931D063290ED0642915D103
:10B8B00017E014F8011FECE7702969D0732932D022
:10B8C00075291BD0782909D120E0D9F80000011D85
:10B8D000C9F8001001784046FCF7C4FE641C90E7EC
:10B8E0006CE0D9F800100A1DC9F800200968CDE9FC
:10B8F00000500A224046FEF7E7FEEFE7D9F80010B5
:10B900000A1DC9F8002009680A2206E0D9F80010CB
:10B910000A1DC9F8002009681022CDE900504046F0
:10B9200005F020FCDAE7D9F8001000270A1DC9F855
:10B9300000200E68C00705D112E04046761C7F1C2F
:10B94000FCF790FE31780029F7D104E02021404631
:10B950006D1EFCF787FEBD42C0D9002DF6D1BDE7B4
:10B960004EB13046FAF7A6FD074604E020214046D6
:10B970006D1EFCF777FEBD4206D9002DF6D103E01F
:10B980004046761CFCF76EFE31780029F8D1A5E719
:10B99000D9F80000011DC9F80010056830214046A3
:10B9A000FCF760FE78214046FCF75CFE0820002191
:10B9B000CDE90001034610222946B0E7BDE8FC8727
:10B9C0002DE9F843884605002C482D499946A0EBFF
:10B9D00001004FEAD0004FF00101164601EB004490
:10B9E00024D0286800282CD0002E34D06968404626
:10B9F0004FF010070A68511E11EA080F11D10146D5
:10BA000072432846FBF75BF900282ED028684B4686
:10BA10003246046901B041462846A446BDE8F043D9
:10BA200060472046174B18A2009722E00E20009096
:10BA30002046144B1EA220A100F0B3FC0E20BDE84E
:10BA4000F8830820009020460E4B26A21AA100F091
:10BA5000A8FC0820F3E7092000902046094B24A207
:10BA600015A100F09EFC0920E9E7064B214A20467B
:10BA7000009711A100F095FC1020E0E7CC36030000
:10BA800014360300CB1B0300616464725F69735F4B
:10BA9000706167655F616C69676E656428705F6679
:10BAA000732C20706167655F616464722900000017
:10BAB000705F667300000000257320636865636B28
:10BAC000206661696C656420696E202573282920D1
:10BAD000776974682076616C756520307825782EDA
